:02000004080AE8
:1000000000000A080C270A08000006000600050187
:080010000402290500000000B4
:040018005C210A0855
:10001C0009480A4908B5884205D0094A824202D0EB
:10002C00121A01F091FC0748074A0021121A01F03C
:10003C0096FC064808BD00BF0000002014260A08E4
:10004C00D0000020D0000020200700202007002036
:10005C0070B500F095FF074B074C1E46E41AA40838
:10006C000025A54204D056F8253098470135F8E70D
:10007C0070BD00BFDC250A0810260A0800F012B873
:10008C0008B500F045F8BDE8084000F03BBF00F0B3
:10009C0033BA0078B0FA80F040097047012303703E
:1000AC007047000008B500F039FE4FF4165100F00F
:1000BC001BFE054B186800F07FFC044B1868BDE86C
:1000CC00084000F095BC00BF040000201000002088
:1000DC0038B500F013FD054600F021FD044600F094
:1000EC0017FD231F062B0ED9E31E082B0DD8013844
:1000FC002D1A01D50B2C02E0072D06DD032C14BFA5
:10010C000020012038BD012038BD002038BD000082
:10011C002DE9F043DFF8F88087B000243A4B3B4ED2
:10012C001868D8F800303A4F03FB0400306000F038
:10013C0091FC00F0BBFC38B1FFF7CAFF10B100F026
:10014C0071FC01E000F078FC00F0D1FC014602A843
:10015C0000F08AFCDDF8089000F074FC2D4D2E4A5E
:10016C004B46002814BF2846104680212B4A00908D
:10017C002B4800F0E1F902A800F064FB013400F018
:10018C00CDFD274900F0F7FA1F2CC7D1DFF8988076
:10019C0000243B68D8F8000003FB0400306000F03A
:1001AC0059FC00F083FC38B1FFF792FF10B100F05E
:1001BC0039FC01E000F040FC00F099FC014602A87B
:1001CC0000F052FCDDF8089000F03CFC124A4B4663
:1001DC00002814BF284610468021104A0090104871
:1001EC0000F0AAF902A800F02DFB013400F096FDF6
:1001FC000B4900F0C0FA1F2CCBD10A4C00F028F8A8
:10020C00206000F001F9F9E708000020D40000207C
:10021C000000002070210A0875210A087B210A08B9
:10022C00D80000201C0600200C00002000F030B884
:10023C0008B5024B1B681B6B019308BDD001060867
:10024C0008B5024B1B685B68019308BD9C0106084E
:10025C0008B5024B1B685B69019308BD9C0106083D
:10026C0008B5024B1B68DB69019308BD9C010608AD
:10027C0008B5024B1B681B6A019308BD9C0106085C
:10028C0008B5024B1B689B6D019308BD9C010608C9
:10029C0008B5024B1B681B68019308BDB00106082A
:1002AC0008B5024B1B68DB69019308BDB401060855
:1002BC0008B5024B1B689B69019308BDC401060875
:1002CC0008B5024B1B685B6A019308BDC4010608A4
:1002DC0008B5024B1B689B6A019308BDC401060854
:1002EC0008B5024B1B68DB6A019308BDC401060804
:1002FC0008B5024B1B681B6B019308BDC4010608B3
:10030C0008B5024B1B685B6B019308BDC401060862
:10031C0008B5024B1B681B6C019308BDC401060891
:10032C0008B5024B1B681B68019308BDD801060871
:10033C0008B5024B1B685B68019308BDD801060821
:10034C0008B5024B1B681B69019308BDD801060850
:10035C0008B5024B1B685B69019308BDD801060800
:10036C0008B5024B1B689B69019308BDD8010608B0
:10037C0008B5024B1B68DB69019308BDD801060860
:10038C0008B5024B1B681B6A019308BDD80106080F
:10039C0008B5024B1B689B6C019308BDC001060895
:1003AC0008B5024B1B681B68019308BDA401060825
:1003BC0008B5024B1B685B68019308BDA4010608D5
:1003CC0008B5024B1B689B6D019308BDA401060880
:1003DC0008B5024B1B68DB6D019308BDA401060830
:1003EC0008B5034B1B68D3F89030019308BD00008F
:1003FC00A401060808B5034B1B68D3F89C30019385
:10040C0008BD0000A401060808B5024B1B689B68D8
:10041C00019308BDCC01060808B5024B1B685B694B
:10042C00019308BDCC01060808B5024B1B681B6B79
:10043C00019308BDCC01060808B5024B1B68DB6BA9
:10044C00019308BDCC01060808B5024B1B685B681C
:10045C00019308BDC801060808B5024B1B689B68D0
:10046C00019308BDC801060808B5024B1B68DB6880
:10047C00019308BDC801060808B5024B1B681B692F
:10048C00019308BDC801060808B5024B1B685B69DF
:10049C00019308BDC801060808B5024B1B689B698F
:1004AC00019308BDC801060808B5024B1B68DB693F
:1004BC00019308BDC801060808B5024B1B681B6AEE
:1004CC00019308BDC801060808B5024B1B681B6BDD
:1004DC00019308BDC801060808B5024B1B685B6B8D
:1004EC00019308BDC801060808B5024B1B681B68C0
:1004FC00019308BDA001060808B5024B1B685B6898
:10050C00019308BDA001060808B5024B1B689B6847
:10051C00019308BDA001060808B5024B1B681B69B6
:10052C00019308BDA001060808B5024B1B689B6926
:10053C00019308BDA001060808B5024B1B68DB69D6
:10054C00019308BDA001060808B5024B1B681B6B84
:10055C00019308BDA001060810B58368044613B1C9
:10056C00032201469847204610BD704710B504463B
:10057C00182100F070FD204610BDF8B50F4600F1B3
:10058C000806051D002416F8011D0A22384600F045
:10059C0026F9AE42044407D0002CF4D02E21384664
:1005AC0000F0DAF80444EEE72046F8BD10B5044636
:1005BC00044B112240F8043B002101F0D0F92046F5
:1005CC0010BD00BF90210A080346074A10B543F836
:1005DC00042B01F1100251F8044B914243F8044BE7
:1005EC00F9D10A781A7010BD90210A08024A4160AC
:1005FC00026004220275704790210A0810B59DF81C
:10060C00084044EA032343EA024242EA016104231C
:10061C004160037510BD000037B5044D05609DF8B1
:10062C0018500095FFF7EAFF03B030BD90210A087F
:10063C00014A024B1A60704757220A0858010020E1
:10064C0000231A464068FFF7FFBE002202214068D3
:10065C00FFF70ABF002211464068FFF7FDBE0022DB
:10066C0011464068FFF708BF00231A461946406838
:10067C00FFF70ABF00231A4619464068FFF70CBF64
:10068C00002281F001014068FFF70EBF0022406894
:10069C00FFF71ABF002211464068FFF71DBF00226A
:1006AC0011464068FFF708BF70B516468EB0044679
:1006BC0008A8FFF77BFF1122002103A801F04FF9D6
:1006CC00304601F08FF900250A4B009581B25B682A
:1006DC0003AA3046FFF75CFE20B129462046FFF7FF
:1006EC0085FF03E003A92046FFF76EFF20460EB0FE
:1006FC0070BD00BF0C060020024B034A1A6000229A
:10070C005A6070475C01002088220A08F8B506463A
:10071C000D468F180024BD420CD0336815F8011B10
:10072C009B6830469847002801DB0444F3E7002C13
:10073C0008BF04462046F8BD70B505460C46084671
:10074C0049B101F04FF92B68024621462846BDE815
:10075C007040DB68184770BD03689B68184738B554
:10076C000D210546FFF7F8FF0A2104462846FFF73E
:10077C00F3FF204438BD38B50546FFF7DDFF0446CE
:10078C002846FFF7ECFF204438BD012A98BF0A2207
:10079C0030B50B468BB000218DF824100DF12304DD
:1007AC00B3FBF2F505FB1233DBB2092B94BF3033EC
:1007BC003733DBB2214604F801392B46002DEFD13B
:1007CC00FFF7BAFF0BB030BD10B422B90368C9B241
:1007DC009B6810BC1847D2B210BCFFF7D6BFFFF70E
:1007EC00F3BF10B50446FFF7B7FE204610BD00005E
:1007FC00034800238360034A034900F027BC00BF71
:10080C0064010020D0000020EF070A08704710B5E3
:10081C000446102100F01FFC204610BD70B50446A4
:10082C000E46074B0025036040F80C5FFFF700FDF8
:10083C0030462671FFF734FDA560204670BD00BF21
:10084C00BC220A0810B504460068FFF755FE204686
:10085C0010BD10B50446006808B1FFF74DFE00232B
:10086C002360A360636010BD38B504460D46006874
:10087C000131FFF749FE10B184E82100012038BD99
:10088C0010B50368044613B143688B4207D2204667
:10089C00FFF7EAFF20B1A3680BB92268137001209F
:1008AC0010BD70B50E46114604461546FFF7E8FF1D
:1008BC0018B92046FFF7CDFF09E02A463146A5605E
:1008CC00206801F041F82268A3680021D154204629
:1008DC0070BD38B500230446036043608360037326
:1008EC000D4639B1084601F07DF8294602462046EE
:1008FC00FFF7D7FF204638BD4FF6FF72034B0020A1
:10090C00187058809A80FFF753BD00BF7401002007
:10091C00F0B5144B144F1E68144B064418683B6812
:10092C0006449E428BB01BD00AA840F8286D00F0FC
:10093C0013FF0446436901AD03F26C7343610FCCA2
:10094C000FC50FCC0FC5D4F800E0094CC5F800E07A
:10095C0001AD0FCD0FC40FCD0FC43E60C4F800E045
:10096C000BB0F0BDAC010020A8010020A4010020B8
:10097C007C01002008B50020FFF756FD28B1FFF7D9
:10098C004BFD80F00100C0B208BD012008BD000085
:10099C0008B5FFF7BDFF024B9869013008BD00BFD9
:1009AC007C01002008B5FFF7B3FF024B186901303A
:1009BC0008BD00BF7C01002010B50949044600F0B9
:1009CC0033FE60B90749204600F04CFE38B90649A1
:1009DC00204600F08BFC00F04FFE044B186010BD5D
:1009EC00000040C10000604100006145AC010020E6
:1009FC0010B50021044600F017FE68B94FF0804195
:100A0C00204600F02FFE38B90449204600F06EFC59
:100A1C0000F032FE024B186010BD00BF00006145B3
:100A2C0014000020024B1A68024B1A60704700BF7A
:100A3C0014000020A4010020014B00221A60704712
:100A4C00A4010020024B1868003018BF0120704729
:100A5C00A401002008B5FFF70BFCBDE808400022FC
:100A6C0011461046FFF7B4BC37B50E4B04461B6855
:100A7C0002A819440C4B1B68194440F8041D00F0E3
:100A8C006BFE00F01FFE054600F0ACFF002328446F
:100A9C0000F8013C29462046FFF71BFF204603B017
:100AAC0030BD00BFAC010020A401002010B5002017
:100ABC00FFF7E6FB044668B9FFF772FC01280BD17F
:100ACC002046FFF77DFC38B9FFF754FF30B9FFF72C
:100ADC009BFCF9E7012010BD002010BDFFF74AFF79
:100AEC000020FFF7CDFB003018BF012010BD08B56A
:100AFC00FFF7DCFFBDE80840FFF7B2BB08B5FFF716
:100B0C00F6FFFFF705FF014BD86808BD7C010020FC
:100B1C0008B5FFF7ECFFBDE80840FFF739BF08B593
:100B2C00FFF7E5FFBDE80840FFF73CBF024B1A6832
:100B3C00024B1A60704700BF18000020A001002073
:100B4C0070474174704708B5007CFFF7E1FB20EA61
:100B5C00E07008BD08B5007CFFF7BAFB20EAE07036
:100B6C0008BD08B5007CFFF7C3FB30EA200028BFA6
:100B7C004FF0FF3008BD08B5007CFFF7B1FB30EA41
:100B8C00200028BF4FF0FF3008BD007CFFF7B8BB3A
:100B9C0010B50446142100F05EFA204610BD70B565
:100BAC00457C04460E4625B9007CFFF7B1FB0028B6
:100BBC0005DD3146207CBDE87040FFF781BB28463F
:100BCC0070BD000010B50446084611460022626054
:100BDC004FF47A72A260054A20742260012262747A
:100BEC001A46FFF765FB204610BD00BFF4220A0829
:100BFC0038B50C4D296811F0010411D12846FFF7C6
:100C0C0048FA68B1084A2146084B0948FFF7DAFF51
:100C1C002846FFF743FA074A0749054800F016FA39
:100C2C00034838BD480200204C020020C4010020BB
:100C3C00B0010020D00000204D0B0A084174704711
:100C4C00704708B50021007CFFF78AFB30EA2000D2
:100C5C0028BF4FF0FF3008BD08B50121007CFFF71D
:100C6C007FFB30EA200028BF4FF0FF3008BD08B5ED
:100C7C00007CFFF76DFB20EAE07008BD08B5007C36
:100C8C00FFF75EFB20EAE07008BD007CFFF778BB45
:100C9C0010B50446142100F0DEF9204610BD38B51D
:100CAC000446007C0D46FFF753FB002801DC607CFA
:100CBC0028B12946207CFFF75BFB20EAE07038BDA9
:100CCC0010B50446002363604FF47A73A360054BA0
:100CDC00084623600123217463741146FFF720FB3F
:100CEC00204610BD24230A080022007CFFF720BBFD
:100CFC0010B504461422002100F031FE054B2046AD
:100D0C006360054BE36040F201132381812323824E
:100D1C0010BD00BF55030020D402002030B50E4D8D
:100D2C0087B001A8FFF7E4FF296811F0010410D186
:100D3C002846FFF7AEF960B101AA21460748FFF734
:100D4C00BFFF2846FFF7AAF9054A0649034800F0F9
:100D5C007DF9024807B030BDD002002058040020B5
:100D6C00D00000204D0C0A0810B5044614220021B6
:100D7C0000F0F5FD054B20466360054BE36040F247
:100D8C00011323818123238210BD00BF080500209D
:100D9C007004002010B50E4C86B001A8FFF7E4FFDC
:100DAC002368DB0710D42046FFF773F960B101AA62
:100DBC0001210848FFF784FF2046FFF76FF9064A28
:100DCC000649044800F042F9024806B010BD00BFC5
:100DDC006C040020F4040020D00000204D0C0A0804
:100DEC00002211464068FFF747BBF0B5164689B0A4
:100DFC0011220F460446002103A800F0B0FD304636
:100E0C0000F0F0FD0025009581B27B6803AA304606
:100E1C00FFF7BEFA20B129462046FFF7E7FB03E0B7
:100E2C0003A92046FFF7D0FB204609B0F0BD0022F5
:100E3C0011464068FFF740BB002211464068FFF79F
:100E4C004BBB00224068FFF73FBB002281F0010141
:100E5C004068FFF729BB00231A4619464068FFF784
:100E6C001BBB00231A4619464068FFF70DBB002236
:100E7C0011464068FFF7F0BA002202214068FFF7E4
:100E8C00F3BA00231A464068FFF7DEBA024B04227D
:100E9C005A60024A1A6070470C06002054230A0854
:100EAC0008B5144B33B1FFF739FF03681B6998473A
:100EBC00002816DC104B33B1FFF79AFE03681B6950
:100ECC009847002810DC0D4B0BB1AFF300800C4B96
:100EDC007BB1FFF75FFF03681B699847002806DCAE
:100EEC0008BDAFF30080E5E7AFF30080EBE7AFF3AD
:100EFC00008008BD000000000000000000000000A1
:100F0C000000000008B5FFF7CBFFFFF7A1F9014B7C
:100F1C00186008BD1C0600200248034A0349121A37
:100F2C0000F012BD004002400440024010260A08A6
:100F3C0007B5002300931A466FF07701FFF75AFAB2
:100F4C0003B05DF804FB000007B543880A2B08D0FA
:100F5C00502B09D1094B1B683BB103B05DF804EB76
:100F6C001847FFF7E5FF06E0002300931A466FF0E1
:100F7C007701FFF73FFA03B05DF804FB140600207D
:100F8C0038B5104C104D2368AB42104B0CBF0122EE
:100F9C0000221A7002D0FFF7BFFF2560FFF750F94F
:100FAC00044600F0E5FC0A4B13B12046AFF3008079
:100FBC0000210748FFF740FABDE8384000210548FA
:100FCC00FFF70EBA004002401E1C279A180600209C
:100FDC0000000000550F0A0813B5084C00231A46F0
:100FEC00194600932046FFF717FB2046044A054993
:100FFC0002B0BDE8104000F029B800BF2006002068
:10100C00D000002077050A0870B50C4C0C4E0D4D25
:10101C0000212046FFF702FC20460B4C32462946A5
:10102C0000F014F801212046FFF7F8FB3246294660
:10103C002046BDE8704000F009B800BF380600201B
:10104C00D000002019080A08480600200B4601466B
:10105C00184600F073BBFFF71AB80000244B1A684F
:10106C00D0075CBF01221A60224B1A68D1075CBF03
:10107C0001221A60204B1A68D2075CBF01221A6049
:10108C001E4B1A68D0075CBF01221A601C4B1A68F1
:10109C00D1075CBF01221A601A4B1A68D2075CBFD9
:1010AC0001221A60184B1A68D0075CBF01221A6023
:1010BC00164B1A68D1075CBF01221A60144B1A68D0
:1010CC00D2075CBF01221A60124B1A68D0075CBFB2
:1010DC0001221A60104B1A68D1075CBF01221A60FA
:1010EC000E4B1A68D2075CBF01221A60704700BF12
:1010FC0084060020800600207C0600207806002054
:10110C0074060020700600206C0600206806002083
:10111C0064060020600600205C06002058060020B3
:10112C00184B1A68D1075CBF01221A60164B1A685B
:10113C00D2075CBF01221A60144B1A68D0075CBF3F
:10114C0001221A60124B1A68D1075CBF01221A6087
:10115C00104B1A68D2075CBF01221A600E4B1A683A
:10116C00D0075CBF01221A600C4B1A68D1075CBF18
:10117C0001221A600A4B1A68D2075CBF01221A605E
:10118C00704700BFA4060020A00600209C0600208B
:10119C009806002094060020900600208C06002063
:1011AC0088060020184B1A68D1075CBF01221A6010
:1011BC00164B1A68D2075CBF01221A60144B1A68CE
:1011CC00D0075CBF01221A60124B1A68D1075CBFB2
:1011DC0001221A60104B1A68D2075CBF01221A60F8
:1011EC000E4B1A68D0075CBF01221A600C4B1A68B0
:1011FC00D1075CBF01221A600A4B1A68D2075CBF88
:10120C0001221A60704700BFC4060020C0060020EF
:10121C00BC060020B8060020B4060020B006002052
:10122C00AC060020A8060020244B1A68D0075CBF2F
:10123C0001221A60224B1A68D1075CBF01221A6086
:10124C00204B1A68D2075CBF01221A601E4B1A6829
:10125C00D0075CBF01221A601C4B1A68D1075CBF17
:10126C0001221A601A4B1A68D2075CBF01221A605D
:10127C00184B1A68D0075CBF01221A60164B1A680B
:10128C00D1075CBF01221A60144B1A68D2075CBFED
:10129C0001221A60124B1A68D0075CBF01221A6037
:1012AC00104B1A68D1075CBF01221A600E4B1A68EA
:1012BC00D2075CBF01221A60704700BFF406002001
:1012CC00F0060020EC060020E8060020E4060020D2
:1012DC00E0060020DC060020D8060020D406002002
:1012EC00D0060020CC060020C80600204FF0FF0CD2
:1012FC001CEAD0521EBF1CEAD15392EA0C0F93EA9F
:10130C000C0F6FD01A4480EA010C400218BF5FEA40
:10131C0041211ED04FF0006343EA501043EA5111B3
:10132C00A0FB01310CF00040B1F5000F3EBF4900AD
:10133C0041EAD3715B0040EA010062F17F02FD2AB1
:10134C001DD8B3F1004F40EBC25008BF20F0010094
:10135C00704790F0000F0CF0004C08BF49024CEAAB
:10136C00502040EA51207F3AC2BFD2F1FF0340EA3D
:10137C00C250704740F400004FF00003013A5DDCAE
:10138C0012F1190FDCBF00F000407047C2F10002EF
:10139C00410021FA02F1C2F1200200FA02FC5FEADC
:1013AC00310040F1000053EA4C0308BF20EADC7026
:1013BC00704792F0000F00F0004C02BF400010F498
:1013CC00000F013AF9D040EA0C0093F0000F01F045
:1013DC00004C02BF490011F4000F013BF9D041EA67
:1013EC000C018FE70CEAD15392EA0C0F18BF93EA69
:1013FC000C0F0AD030F0004C18BF31F0004CD8D193
:10140C0080EA010000F00040704790F0000F17BF19
:10141C0090F0004F084691F0000F91F0004F14D05F
:10142C0092EA0C0F01D142020FD193EA0C0F03D1B7
:10143C004B0218BF084608D180EA010000F00040BA
:10144C0040F0FE4040F40000704740F0FE4040F495
:10145C00400070474FF0FF0C1CEAD0521EBF1CEA34
:10146C00D15392EA0C0F93EA0C0F69D0A2EB030252
:10147C0080EA010C49024FEA402037D04FF08053EC
:10148C0043EA111143EA10130CF000408B4238BFB1
:10149C005B0042F17D024FF4000C8B4224BF5B1ABF
:1014AC0040EA0C00B3EB510F24BFA3EB510340EA0D
:1014BC005C00B3EB910F24BFA3EB910340EA9C00BB
:1014CC00B3EBD10F24BFA3EBD10340EADC001B012B
:1014DC0018BF5FEA1C1CE0D1FD2A3FF650AF8B42CF
:1014EC0040EBC25008BF20F0010070470CF0004CDC
:1014FC004CEA50207F32C2BFD2F1FF0340EAC25007
:10150C00704740F400004FF00003013A37E792F0C7
:10151C00000F00F0004C02BF400010F4000F013A25
:10152C00F9D040EA0C0093F0000F01F0004C02BF20
:10153C00490011F4000F013BF9D041EA0C0195E789
:10154C000CEAD15392EA0C0F08D142027FF47DAF22
:10155C0093EA0C0F7FF470AF084676E793EA0C0F12
:10156C0004D14B023FF44CAF08466EE730F0004C10
:10157C0018BF31F0004CCAD130F000427FF45CAFA0
:10158C0031F000437FF43CAF5FE700BF4FF0FF3C0E
:10159C0006E000BF4FF0010C02E000BF4FF0010C61
:1015AC004DF804CD4FEA40024FEA41037FEA226C2A
:1015BC0018BF7FEA236C11D001B052EA530C18BF4C
:1015CC0090EA010F58BFB2EB030088BFC81738BFB1
:1015DC006FEAE17018BF40F0010070477FEA226C9F
:1015EC0002D15FEA402C05D17FEA236CE4D15FEA9B
:1015FC00412CE1D05DF8040B704700BF84460846CF
:10160C006146FFE70FB5FFF7C9FF002848BF10F18F
:10161C00000F0FBD4DF808EDFFF7F4FF0CBF0120D4
:10162C0000205DF808FB00BF4DF808EDFFF7EAFF5E
:10163C0034BF012000205DF808FB00BF4DF808ED19
:10164C00FFF7E0FF94BF012000205DF808FB00BF0E
:10165C004DF808EDFFF7D2FF94BF012000205DF894
:10166C0008FB00BF4DF808EDFFF7C8FF34BF0120A1
:10167C0000205DF808FB00BF4FEA4002B2F1FE4FBC
:10168C000FD34FF09E03B3EB12620DD94FEA002338
:10169C0043F0004310F0004F23FA02F018BF404211
:1016AC0070474FF00000704712F1610F01D14202F8
:1016BC0005D110F0004008BF6FF0004070474FF0AC
:1016CC0000007047094B70B51C680646256C3DB987
:1016DC001A20FEF709FF1A222064294600F03FF970
:1016EC00216C3046BDE8704000F002B8800000204C
:1016FC0010B50C46416986B001F26C7103698269C0
:10170C000491016803EB43030391416802EB42022D
:10171C00029181680191C1682046009104490B44F3
:10172C0004490A440449FEF7F7FE204606B010BDF2
:10173C0095230A0880230A08B9230A0810B5054C1A
:10174C0013462CB10A4601460220AFF3008010BDAF
:10175C00204610BD0000000038B5074B05461C683C
:10176C00E36B1BB92420FEF7BFFEE063E16B284658
:10177C00BDE8384000F002B8800000202DE9F041AF
:10178C000C46804600F048FC21460746404600F0D7
:10179C0047FC4669044606F26C76B30705D1642211
:1017AC0096FBF2F302FB13634BB94FF4C87596FB2F
:1017BC00F5F305FB1365B5FA85F35B0900E001232E
:1017CC005F4A302505FB032500F05AFA00F05AFA5F
:1017DC005C4B1B68F3B17B689E4205D13968D8F825
:1017EC000030FA6941B90AE0304600F0A1F900284E
:1017FC00F4D14FF0FF330DE0934208DB01E093424C
:10180C0007DABA6B9342ACBF0023012302E000233A
:10181C0000E001232362236A3C20012B0CBFF96BEF
:10182C00396A4FF4616391FBF3F603FB161393FBD8
:10183C00F0F200FB123061682368891AA2681B1A47
:10184C00921B3B2B23606160A26003DD0131616060
:10185C003C3B04E0002B03DA013961603C3323602C
:10186C0063683B2B03DD0132A2603C3B04E0002BA0
:10187C0003DA013AA2603C336360A368172B22DDC4
:10188C00E269183B0132E261A269A3600132062AC7
:10189C00C8BF0022A261E26823690132E26055F8F8
:1018AC0023108A4246DD01330C2B08BF6369A2EB7F
:1018BC000102E26005BF013300222361226104BFF3
:1018CC006361E26136E0002B34DAE2691833013AE5
:1018DC00E261A269A360013A48BF0622A261E268F4
:1018EC00013AE26032BB2369013B01D423611DE064
:1018FC000B23236163695A1E12F0030F626103F21A
:10190C006B7305D1642193FBF1F201FB12324AB9DE
:10191C004FF4C87193FBF1F201FB1233B3FA83F36A
:10192C005B0900E0012303F5B673E361236955F805
:10193C002330E36000F0A5F92046BDE8F08100BF3C
:10194C0040250A081407002010B5431E0A44914292
:10195C0004D011F8014B03F8014FF8E710BD034612
:10196C000244934202D003F8011BFAE770470000CF
:10197C0038B5124B05461C68A36BD3B91820FEF77B
:10198C00B3FD43F20E33A06303804AF6CD3343809C
:10199C0041F2342383804EF26D63C3804DF6EC63C9
:1019AC000381052343810B23838101220023C0E99A
:1019BC000423A36B00221D615A6138BD80000020F6
:1019CC0010F8012B11F8013B012A28BF9A42F7D0DD
:1019DC00D01A7047034611F8012B03F8012B002A8B
:1019EC00F9D17047034613F8012B002AFBD1181AC2
:1019FC000138704730B582B1451E013915F8013FE9
:101A0C0011F8014FA34206D1EC431444E04201D03B
:101A1C00002BF3D11C46181B30BD104630BD000006
:101A2C002DE9F0470E4680463B48D0F800903546ED
:101A3C0015F8014B09EB0400407800F0080000F0A9
:101A4C00FF0708B12E46F2E72D2C03D1B51C747894
:101A5C00012703E02B2C04BF7478B51C13B1102B99
:101A6C000AD153E0302C4FD1287800F0DF005828F1
:101A7C0045D16C78102302354FF0FF3CBCFBF3FCD6
:101A8C0003FB0CFA00266FEA0A0A304609EB040E37
:101A9C009EF801E01EF0040F01D0303C0BE01EF06C
:101AAC00030E1AD0BEF1010F0CBF4FF0370E4FF0E2
:101ABC00570ECEEB0404A3420FDD002E08DB60456D
:101ACC0006D801D1544503DC03FB0040012601E09C
:101ADC004FF0FF3615F8014BD8E7002E07DA22231A
:101AEC00C8F800304FF0FF302AB9BDE8F08707B1D5
:101AFC00404272B106B1691E1160BDE8F087302416
:101B0C00002BB9D10823B7E70A23B5E7302CABD0AB
:101B1C00B2E7BDE8F08700BF1C00002013460A4660
:101B2C00014602480068FFF77BBF00BF8000002021
:101B3C002DE9F74F044600F06FFA40F2B1739C4266
:101B4C0040F3968040F26D156FF4F663E318A4F23F
:101B5C00B2729B1005FB0235A4F26D726FF0630339
:101B6C0092FBF3F36FF4C8622B44A5184FF4C872C0
:101B7C0094FBF2F795FBF2F502FB17471D44642327
:101B8C0094FBF3F6B7FA87FE014603FB164600F109
:101B9C003803019304F0030344604FEA5E1E009384
:101BAC004FF0070C0B7A4A2B0ED14B69009AEC18AC
:101BBC0002B906B927B93B2BD4BF0023012300E09F
:101BCC0000232344013B3FE0442B02D14B692B44BF
:101BDC003AE0009B2BB9002E0CBFF0464FF00108E9
:101BEC0000E0F046A946244B302202FB0838CC68B2
:101BFC00A8F1040A0123A34204DA5AF804BF013302
:101C0C00D944F8E709F1040393FBFCFBCBEBCB0ABB
:101C1C00CAEB030A4B69012CB8BF0124B3EB0A0AC7
:101C2C000B6904F1804403F1FF3304F1FF3448BF26
:101C3C000AF1070AC3EBC30358F824405344A342E8
:101C4C0001DB073BFBE74B448C690C4A02FB03436B
:101C5C000C6A234441F81C3F019B9942A2D1C369F1
:101C6C00826B9342ACBF002301230360012000E090
:101C7C00002003B0BDE8F08F40250A088051010018
:101C8C0070477047014B186800F002B880000020C4
:101C9C002DE9F04F8DB0074600F0BEF9B04904466F
:101CAC00384600F0B1F9AF4E054660B9AE4BAF4ABD
:101CBC001860AF4B1860AF4B30681A605A60FEF773
:101CCC001BFC356048E1316879B93068FEF714FCCB
:101CDC002846FFF787FE411C3846FEF735FC30607E
:101CEC0048B12946FFF776FE05E0FFF769FE0028AC
:101CFC0000F03281E9E72B780AAE3A2B08BF0135A8
:101D0C0033469D4A9D492846FEF70EFC002840F3B9
:101D1C0023810A9BEF18EB5C2D2B03D101374FF07D
:101D2C00FF3503E02B2B08BF013701250DF1200AED
:101D3C000DF11E0B4FF000080396CDF808A001968C
:101D4C00CDF800B0334607AA8D493846ADF81E8051
:101D5C00ADF82080FEF7E8FB404540F3FD80BDF870
:101D6C001E20BDF820303C2101FB0233BDF81C20A5
:101D7C004FF4616101FB02335D437F4B25627D4D66
:101D8C00DFF808922B600A9B4A461F447B49334676
:101D9C003846FEF7C9FB404508DC2B68226A6B60AD
:101DAC00714B1A60724BC3F80080D5E00A9BC5F8E2
:101DBC000490FD18FB5C2D2B03D101354FF0FF3740
:101DCC0003E02B2B08BF013501270023ADF81C3095
:101DDC00ADF81E30ADF820300A930396CDF808A06C
:101DEC000196CDF800B0334607AA65492846FEF7A0
:101DFC009BFB002804DC236AA3F56163E3630EE01C
:101E0C00BDF81E20BDF820303C2101FB0233BDF88B
:101E1C001C204FF4616101FB02335F43E7632746EB
:101E2C000A9B4FF000091D442B782C2B08BF013561
:101E3C0095F80080B8F14D0F26D10DF126030293D1
:101E4C0009AB00930396019633460DF122024D49DE
:101E5C002846FEF769FB03287ED1BDF822104B1EE5
:101E6C000B2B79D8BDF82420531E042B74D8BDF845
:101E7C002630062B70D887F80880F9603A617B61B0
:101E8C000A9B05EB03082AE0B8F14A0F06BF43464C
:101E9C00013544230A220BA928460593FFF73EFE81
:101EAC00DDF82C80ADF826004545059B14D14D235B
:101EBC00B9F1000F07D123720323E36002232361DE
:101ECC00C4F814900BE084F824300B23A362012394
:101EDC00E3620023236302E080B23B727861022349
:101EEC00ADF81C300023ADF81E30ADF820300A934D
:101EFC0098F800302F2B0BD10396CDF808A0019643
:101F0C00CDF800B0334607AA1F494046FEF70CFB3C
:101F1C00BDF81E20BDF820303C2101FB0233BDF87A
:101F2C001C204FF4616101FB0233BB610A9D09F176
:101F3C000109B9F1020F454407F11C077FF474AF96
:101F4C006068FFF7F5FD226A074B1A60E36B9B1A7A
:101F5C00074A18BF012313600DB0BDE8F08F00BF16
:101F6C00A0250A081007002018070020A3250A083E
:101F7C00140700208400002003070020A7250A086E
:101F8C00CA250A08B6250A08C9250A08F806002039
:101F9C002DE9F84F07468B46904600F0D7F8194BC1
:101FAC001D689A463DB15C46234613F8012B42B19D
:101FBC003D2A1C46F8D1384600F0C9F80020BDE88F
:101FCC00F88FCBEB0404A94659F8040B0028F2D087
:101FDC0022465946FFF70EFD88B959F8043C1E19E4
:101FEC001B5D3D2B0BD1DAF800303846ED1AAD10E5
:101FFC00C8F8005000F0ABF8701CBDE8F88F4D46E7
:10200C00E1E700BFCC00002007B501AAFFF7C0FF35
:10201C0003B05DF804FB0000004870478C00002002
:10202C000268464BF0B592FBF3F403FB1422002A32
:10203C00BCBF02F5A83202F5C0724FF4616092FB8E
:10204C00F0F300FB13224FF03C008B6092FBF0F39B
:10205C0000FB132204F52F24ACBF04F66C2404F609
:10206C006B244B600A600723E21C92FBF3F3344DA4
:10207C00C3EBC30394FBF5F5D31A48F6AC6240F2FC
:10208C00B4578B612F4B304803FB0544B4FBF2F281
:10209C00B4FBF7F3B4FBF0F02244D21A48F6946682
:1020AC00131A40F26D12B3FBF6F6B3FBF2F0B3FB6E
:1020BC00F7F33444E31A02FB103303EB8302992445
:1020CC000232B2FBF4F25443A61C0524B6FBF4F422
:1020DC000A2A34BF02266FF0090616444FF4C87260
:1020EC0002FB05055F1C012E98BF0135B3F5997FE6
:1020FC00A7EB040702D3A3F5997214E0820705D16C
:10210C006424B0FBF4F204FB12024AB94FF4C87217
:10211C00B0FBF2F402FB1400B0FA80F2520900E0BA
:10212C0001223B331A44A5F26C750023CA614D6140
:10213C000E61CF600B620846F0BD00BF80510100FC
:10214C00B13A02004FC5FDFFB03A0200704770472C
:10215C001D000A085D000A0889000A088D000A089B
:10216C0000000000547275650046616C73650025B3
:10217C0073202D204453543A202573000000000096
:10218C000000000087050A0877050A0879050A0887
:10219C0066006C6E00666E00636F64650064657447
:1021AC0061696C000D0A00253031307520005D200E
:1021BC00002564002C200028293A2000205B0063B5
:1021CC006F6465203D200025690064657461696C4D
:1021DC0073203D2000626175640053657269616C07
:1021EC000055534253657269616C310074797065A6
:1021FC0000706172616D00636D6400696400686EEB
:10220C0064007374726D0066696C74006C766C009B
:10221C0061646448616E646C65720072656D6F76A2
:10222C006548616E646C657200656E756D48616EB3
:10223C00646C657273004A534F4E53747265616DD2
:10224C004C6F6748616E646C657200617070006EF3
:10225C006F6E6500747261636500696E666F0077FE
:10226C0061726E006572726F720070616E696300EC
:10227C00616C6C0000000000000000004D060A08B4
:10228C0057060A0861060A086B060A0875060A084A
:10229C0081060A088D060A0899060A08A1060A088A
:1022AC00AB060A08B5060A08000000000000000092
:1022BC0019080A081B080A08252B3033643A253004
:1022CC0032750025592D256D2D25645425483A2548
:1022DC004D3A2553257A0061736374696D6500006E
:1022EC0000000000000000004D0B0A089D0B0A08BE
:1022FC00AB0B0A0819070A08610B0A08830B0A08BA
:10230C006F0B0A08970B0A084F0B0A08530B0A08A5
:10231C0000000000000000004D0C0A089D0C0A088B
:10232C00AB0C0A0819070A08890C0A084F0C0A0892
:10233C00650C0A08970C0A087B0C0A08490C0A0859
:10234C0000000000000000008F0E0A08850E0A082D
:10235C007B0E0A08ED0D0A086F0E0A08630E0A08B8
:10236C00570E0A084F0E0A08450E0A083B0E0A08BB
:10237C00F70D0A0853756E4D6F6E5475655765648D
:10238C005468754672695361744A616E4665624D54
:10239C0061724170724D61794A756E4A756C417506
:1023AC00675365704F63744E6F76446563252E33A7
:1023BC007320252E337325336420252E32643A2561
:1023CC002E32643A252E32642025640A0000202027
:1023DC0020202020202020282828282820202020C9
:1023EC002020202020202020202020202020881089
:1023FC0010101010101010101010101010100404E9
:10240C0004040404040404041010101010101041EF
:10241C004141414141010101010101010101010160
:10242C0001010101010101010110101010101042F5
:10243C004242424242020202020202020202020230
:10244C00020202020202020202101010102000000E
:10245C000000000000000000000000000000000070
:10246C000000000000000000000000000000000060
:10247C000000000000000000000000000000000050
:10248C000000000000000000000000000000000040
:10249C000000000000000000000000000000000030
:1024AC000000000000000000000000000000000020
:1024BC000000000000000000000000000000000010
:1024CC000000000000000000000000000000000000
:1024DC0000000000000000000000000000000000F0
:1024EC0000000000000000000000000000000000E0
:1024FC0000000000000000000000000000000000D0
:10250C0000000000000000000000000000000000BF
:10251C0000000000000000000000000000000000AF
:10252C00000000000000000000000000000000009F
:10253C00430000001F0000001C0000001F000000F2
:10254C001E0000001F0000001E0000001F00000005
:10255C001F0000001E0000001F0000001E000000F5
:10256C001F0000001F0000001D0000001F000000E5
:10257C001E0000001F0000001E0000001F000000D5
:10258C001F0000001E0000001F0000001E000000C5
:10259C001F000000545A00474D54002531305B5E3B
:1025AC00302D392C2B2D5D256E004D256875256E33
:1025BC002E256875256E2E256875256E002F2568CD
:1025CC0075256E3A256875256E3A256875256E0059
:1025DC0039020A083D060A0805070A08FD070A0819
:1025EC0005090A08390B0A08990E0A08E50F0A08AA
:1025FC0015100A0869100A082D110A08B1110A08E9
:04260C0035120A0871
:0426100000000000C6
:10261400805101000000A0C00001665C405CBA5D0E
:102624000000803F100E0000E3220A08D9230A08A4
:1026340000000000DC240A08FC240A081C250A08FF
:102644000000000000000000000000000000000086
:102654003C250A0800000000000000000000000003
:102664000000000000000000000000000000000066
:102674000000000000000000000000000000000056
:102684000000000000000000000000000000000046
:1026940020000020A3250A08A3250A080100000041
:1026A400000000004A0000000000000000000000DC
:1026B4000000000000000000000000000000000016
:1026C4004A000000000000000000000000000000BC
:1026D4000000000000000000000000001C070020B3
:1026E400FFFFFFFF00000102030405060708090AB3
:1026F4000B0C0D0E0F101112131415161718191AAE
:082704001B1C1D1E1F202800F4
:04270C0078563412B5
:04000005080A001CC9
:00000001FF
