:020000040808EA
:1000000000000808F02E0808000006000A0005019C
:080010000402290500000000B4
:040018005C28080850
:10001C0009480A4908B5884205D0094A824202D0EB
:10002C00121A01F0F7FF0748074A0021121A01F0D3
:10003C00FCFF064808BD00BF00000020042E080885
:10004C00C4000020C400002040070020400700200E
:10005C0070B501F0EDFA074B074C1E46E41AA408E4
:10006C000025A54204D056F8253098470135F8E70D
:10007C0070BD00BFC42D0808F82D080800F036B874
:10008C0008B500F0CDF8BDE8084001F093BA00F0D7
:10009C009DBA00F0A3BA0078B0FA80F0400970471E
:1000AC0001230370704737B505469DF8184023436C
:1000BC008DF800303C2300F0B1FC284603B030BD75
:1000CC0038B5046805467CB16368013B63605BB975
:1000DC00236820469B689847A368013BA3601BB923
:1000EC0023682046DB689847284638BD1FB50C4B63
:1000FC00186801F011F80B4B186801F029F80A4B3D
:10010C0000221B7809498DF8002002A8084AFFF745
:10011C00CAFF03A8FFF7D4FF05B05DF804FB00BFCE
:10012C000000002004000020CC000020A1280808BA
:10013C00982808087FB501F091F8064601F09FF861
:10014C00044601F095F8231F062B2C4D05D80022F0
:10015C008DF800202B782A4A3CE0E31E082B05D9A9
:10016C0000242B788DF80040264A3DE00138301AE7
:10017C0000280DDC00222B788DF800202249234A20
:10018C0002A8FFF790FF03A8FFF79AFF0B2C0EE0D5
:10019C00082810DD00222B788DF800201A491C4A03
:1001AC0002A8FFF780FF03A8FFF78AFF032C14BFF8
:1001BC000020012020E001F04AF8164B002490FBAF
:1001CC00F3F202FB1300B0F5E15F2B788DF80040E1
:1001DC0009DB114A0C4902A8FFF765FF03A8FFF7DA
:1001EC006FFF012008E00D4A074902A8FFF75BFFEB
:1001FC0003A8FFF765FF204604B070BDCC000020BB
:10020C00A9280808C2280808B9280808D32808080B
:10021C00E528080880510100F42808080829080876
:10022C0030B5244C87B02368092B84BF002323608E
:10023C002268214B53F8220000F0BCFFFFF77AFF35
:10024C0010B100F09FFF01E000F0A6FF4FF47A70B0
:10025C0000F0FCF900F0FBFF014602A800F0B4FF2F
:10026C00029D00F09FFF154B154A8021002814BFFA
:10027C00104618462B460090124A134800F0CEF94F
:10028C0002A800F08FFE114B00221B7810498DF84C
:10029C00002002A80C4AFFF706FF03A8FFF710FF87
:1002AC0023684FF47A700133236000F0CFF907B064
:1002BC0030BD00BFC800002070280808222908089B
:1002CC001D29080828290808CD000020CC00002092
:1002DC004E290808024B01221A7000F03BB800BFEF
:1002EC00CC00002008B5024B1B68DB6B019308BDEA
:1002FC002000060808B5024B1B681B6B019308BD58
:10030C00D001040808B5024B1B685B68019308BD5B
:10031C009C01040808B5024B1B685B69019308BD7E
:10032C009C01040808B5024B1B68DB69019308BDEE
:10033C009C01040808B5024B1B681B6A019308BD9D
:10034C009C01040808B5024B1B689B6D019308BD0A
:10035C009C01040808B5024B1B681B68019308BD7F
:10036C00B001040808B5024B1B68DB69019308BD9A
:10037C00B401040808B5024B1B689B69019308BDC6
:10038C00C401040808B5024B1B685B6A019308BDE5
:10039C00C401040808B5024B1B689B6A019308BD95
:1003AC00C401040808B5024B1B68DB6A019308BD45
:1003BC00C401040808B5024B1B681B6B019308BDF4
:1003CC00C401040808B5024B1B685B6B019308BDA4
:1003DC00C401040808B5024B1B681B6C019308BDD3
:1003EC00C401040808B5024B1B681B68019308BDC7
:1003FC001C00060808B5024B1B681B69019308BD5D
:10040C001C00060808B5024B1B685B69019308BD0C
:10041C001C00060808B5024B1B689B69019308BDBC
:10042C001C00060808B5024B1B68DB69019308BD6C
:10043C001C00060808B5024B1B681B6A019308BD1B
:10044C001C00060808B5024B1B681B68019308BD0D
:10045C00A401040808B5024B1B685B68019308BD36
:10046C00A401040808B5024B1B685B69019308BD25
:10047C00A401040808B5024B1B68DB6C019308BD92
:10048C00A401040808B5024B1B685B6D019308BD01
:10049C00A401040808B5024B1B689B6D019308BDB1
:1004AC00A401040808B5024B1B68DB6D019308BD61
:1004BC00A401040808B5034B1B68D3F890300193D2
:1004CC0008BD0000A401040808B5034B1B68D3F851
:1004DC009C30019308BD0000A401040808B5024B30
:1004EC001B689B68019308BDCC01040808B5024B3E
:1004FC001B685B69019308BDCC01040808B5024B6D
:10050C001B681B6A019308BDCC01040808B5024B9B
:10051C001B681B6B019308BDCC01040808B5024B8A
:10052C001B68DB6B019308BDCC01040808B5024BBA
:10053C001B685B68019308BDC801040808B5024B31
:10054C001B689B68019308BDC801040808B5024BE1
:10055C001B68DB68019308BDC801040808B5024B91
:10056C001B681B69019308BDC801040808B5024B40
:10057C001B685B69019308BDC801040808B5024BF0
:10058C001B689B69019308BDC801040808B5024BA0
:10059C001B68DB69019308BDC801040808B5024B50
:1005AC001B681B6A019308BDC801040808B5024BFF
:1005BC001B681B6B019308BDC801040808B5024BEE
:1005CC001B685B6B019308BDC801040808B5024B9E
:1005DC001B681B68019308BDA001040808B5024BF9
:1005EC001B685B68019308BDA001040808B5024BA9
:1005FC001B689B68019308BDA001040808B5024B59
:10060C001B681B69019308BDA001040808B5024BC7
:10061C001B689B69019308BDA001040808B5024B37
:10062C001B68DB69019308BDA001040808B5024BE7
:10063C001B68DB6A019308BDA001040808B5024BD6
:10064C001B681B6B019308BDA00104080021FFF778
:10065C0009BF10B5836804460BB901F062F8C36892
:10066C009847A3681BB10322214620469847204691
:10067C00BDE81040102101F052B80022114640682C
:10068C00FFF76CBF2DE9FF41002604AC0546104670
:10069C008846174644F8046D01F025FD009681B29A
:1006AC00D8F8043022463846FFF71CFE20B13146FC
:1006BC00284600F067FB03E02146284600F05AFB71
:1006CC00284604B0BDE8F081002211464068FFF7CF
:1006DC0065BF002211464068FFF770BF00224068DA
:1006EC00FFF764BF002281F001014068FFF74EBFA5
:1006FC0000231A4619464068FFF740BF00231A46EC
:10070C0019464068FFF732BF002211464068FFF7D8
:10071C0015BF002202214068FFF718BF00231A46BC
:10072C004068FFF703BF000038B5084C28252A465F
:10073C000021204601F079FC4FF0FF336360044B3D
:10074C0004225A60034A25801A6038BD58010020E3
:10075C00500100205C29080870470020704710B534
:10076C000446102100F0DBFF204610BD08B508B18F
:10077C00FFF7F5FF08BD10B58368044613B10322DB
:10078C0001469847204610BD002202604FF69C722D
:10079C00828010B5B1F9044084808A8002680C68AC
:1007AC0004600A6010BD10B504460068FFF716FF20
:1007BC00204610BD38B5C468F4B12378022B03D1A0
:1007CC0004F10C00FFF7EFFF656835B12846FFF721
:1007DC00D2FF1021284600F0A2FFA56835B12846AB
:1007EC00FFF7C9FF1021284600F099FF2046BDE80D
:1007FC003840142100F093BF38BD13B5044691E87E
:10080C00050000234B600B602060626001A801931F
:10081C000093FFF755FC204602B010BD0B68036037
:10082C0013B15A6801325A607047F7B50C46064648
:10083C000F4654F8043B02AD45F8083D214601A88B
:10084C00FFF7ECFF29463046FFF7D7FF01A8FFF76B
:10085C0037FC2046FFF734FC3846082100F05FFFD8
:10086C00304603B0F0BD13B50B46044603C88DE803
:10087C00030093E8030084E803009DE8030083E889
:10088C00030002B010BD000038B50023044603601D
:10089C0010200D46FFF7FBFB28B10123436083605A
:1008AC00024BC56003602060204638BD90290808C3
:1008BC00826810B50AB900F034FFC368BDE8104077
:1008CC00184708B5006800F11001FFF7F1FF08BDEB
:1008DC00826810B50AB900F024FFC368BDE8104067
:1008EC00184708B5006800F11001FFF7F1FF08BDCB
:1008FC0038B5002383608B6804460D462BB1022269
:10090C009847EB68E360AB68A360204638BD0000F5
:10091C00F0B589B004686846FFF736FF4FF0020265
:10092C0000238DF80830D4E84F3F002B03D1C4E8E6
:10093C00412F0029F7D102D08DF8083063E014F173
:10094C000C0503D069462846FFF71EFFBFF35F8FE7
:10095C0001236370BFF35F8F04F10803002053E899
:10096C00006F43E80002002AF9D1BFF35F8F002E1D
:10097C0049D0FFF77FFD20B129463046FFF798FF9D
:10098C003AE0314602A8FFF7B3FFE068B4F9105023
:10099C0008B101F08DFB06901020ADF81C50FFF74C
:1009AC0076FB0546E8B1002787601820FFF76FFB40
:1009BC00044688B10146876002A8FFF754FF049BE8
:1009CC00A268A360059B0492E26806A9E36004F1A7
:1009DC0010000592FFF7D8FE0D4B2C60EB600D4B11
:1009EC00AB6006A8FFF7DFFE02A8FFF7C4FE0022EB
:1009FC0029460948FFF746FD3046FFF7BCFE10219B
:100A0C00304600F08CFE6846FFF7CDFE09B0F0BD15
:100A1C00CF080808450B08085F0608082DE9F04FB9
:100A2C008BB006460F46904699469DF850A0FFF7AE
:100A3C005DFD07AD834630BB4FF62E73059005A9BF
:100A4C002846ADF81830FFF79FFE1420FFF71FFB68
:100A5C00044658B10223037001234370C0F804B05C
:100A6C00C0F808B029460C30FFF78EFE3046214600
:100A7C0040F8044BFFF708FF2846FFF794FE05A843
:100A8C00FFF791FE52E000240C2314206C60AC6044
:100A9C000793FFF7FCFA014618B1047044704460E8
:100AAC00846004A80391FFF7EFFE224B0820089303
:100ABC00FFF7EDFA044628B1039B04A940F8043B68
:100ACC00FFF7ACFE00955FFA8AF34A46414638467A
:100ADC000994FFF713FD20B9039B5B7803F0FF0229
:100AEC0083B1039B04A906A80593FFF797FE05A9FC
:100AFC003046FFF782FE06A8FFF7E2FA04A8FFF7DC
:100B0C00DFFA13E04FF69C7305A903A80592ADF824
:100B1C001830FFF7FDFE05A8FFF745FE05A809995B
:100B2C00FFF783FE06A8FFF7CBFADAE730460BB0E7
:100B3C00BDE8F08FB50C0808022AF8B5044606D0BB
:100B4C00032A17D0012A22D10B6803601FE018205A
:100B5C000E68FFF79CFA054650B13146FFF7C8FE08
:100B6C003069B6F9147008B101F0A2FA2861AF82AD
:100B7C0025600CE0046854B104F11000FFF713FE7B
:100B8C002046FFF7F8FD1821204600F0C8FD002094
:100B9C00F8BD38B5002383608B6804460D462BB135
:100BAC0002229847EB68E360AB68A360204638BD2F
:100BBC00022A70B5044606D0032A11D0012A18D196
:100BCC000B68036015E014200E68FFF760FA054609
:100BDC0020B13146FFF7DDFF337C2B74256008E034
:100BEC00046834B12046FFF7C6FD1421204600F0FE
:100BFC0096FD002070BD0000F0B50C46BFF35F8F72
:100C0C0087B0002350E8006F40E80032002AF9D189
:100C1C00BFF35F8F002E3FD01846FFF72BFC074623
:100C2C0020B121463046FFF753FE2EE0314601A895
:100C3C00FFF7AFFF237810208DF81430FFF727FA59
:100C4C000546D0B187601420FFF721FA044678B12D
:100C5C008760014601A8FFF706FE039BA268A3600C
:100C6C00049B0392E268E3609DF8143004922374B1
:100C7C000A4B2C60EB600A4BAB6001A8FFF77BFDC5
:100C8C00002229460748FFF7FDFB3046FFF773FDAE
:100C9C001021304600F043FD07B0F0BDEF08080806
:100CAC00BD0B08085F06080830B5044685B00D4634
:100CBC0068461146FFF7B9FD7CB124B228460DB148
:100CCC0001F0F6F9029002A96846ADF80C40FFF766
:100CDC001FFE02A8FFF767FD1DE04FF00102009810
:100CEC008DF80840D0E84F3FA34203D1C0E8412F14
:100CFC000029F7D102D08DF808300CE010F10C016E
:100D0C004FF0010318BF0373BFF35F8F043000F87B
:100D1C00033CFFF771FF01A8FFF7D2F905B030BD16
:100D2C00704710B50446082100F0F9FC204610BDB0
:100D3C00F8B50F4600F10806051D002416F8011D34
:100D4C000A22384600F0FBF8AE42044407D0002CCF
:100D5C00F4D02E21384600F0C5F80444EEE72046C6
:100D6C00F8BD0000024A026000224260704700BFDA
:100D7C00AC290808024A02600A684260704700BF4A
:100D8C00AC290808014A416002607047AC29080888
:100D9C0010B59DF8084044EA032343EA024242EAB4
:100DAC000161416010BD000037B5044D05609DF830
:100DBC0018500095FFF7ECFF03B030BDAC290808C4
:100DCC00014A024B1A607047732A08088001002000
:100DDC0000231A464068FFF7A9BB00220221406895
:100DEC00FFF7B4BB002211464068FFF7A7BB0022F7
:100DFC0011464068FFF7B2BB00231A4619464068FB
:100E0C00FFF7B4BB00231A4619464068FFF7B6BB80
:100E1C00002281F001014068FFF7B8BB0022406856
:100E2C00FFF7C4BB002211464068FFF7C7BB002286
:100E3C0011464068FFF7B2BBF0B5174687B00546C0
:100E4C0004A8FFF78FFF002606AC384644F80C6D5B
:100E5C0001F049F90A4B009681B25B68224638468C
:100E6C00FFF740FA20B131462846FFF78BFF03E02D
:100E7C0021462846FFF77EFF284607B0F0BD00BF8D
:100E8C0050010020024B034A1A6000225A6070473E
:100E9C0084010020A42A0808F8B506460D468F18D0
:100EAC000024BD420CD0336815F8011B9B683046FA
:100EBC009847002801DB0444F3E7002C08BF0446E4
:100ECC002046F8BD70B505460C46084649B101F000
:100EDC000AF92B68024621462846BDE87040DB68BB
:100EEC00184770BD03689B681847012A98BF0A22EF
:100EFC0030B50B468BB000218DF824100DF1230476
:100F0C00B3FBF2F505FB1233DBB2092B94BF303384
:100F1C003733DBB2214604F801392B46002DEFD1D3
:100F2C00FFF7D0FF0BB030BD10B422B90368C9B2C3
:100F3C009B6810BC1847D2B210BCFFF7D6BFFFF7A6
:100F4C00F3BF10B50446FFF716FC204610BD000099
:100F5C00034800238360034A034900F0DBBB00BF56
:100F6C008C010020C40000204F0F0808704710B5FA
:100F7C000446102100F0D3FB204610BD70B504468A
:100F8C000E46074B0025036040F80C5FFFF7B2F9E3
:100F9C0030462671FFF7E6F9A560204670BD00BF0C
:100FAC00D82A080810B504460068FFF717FB20463E
:100FBC0010BD10B50446006808B1FFF70FFB002305
:100FCC002360A360636010BD38B504460D4600680D
:100FDC000131FFF70BFB10B184E82100012038BD73
:100FEC0010B50368044613B143688B4207D2204600
:100FFC00FFF7EAFF20B1A3680BB922681370012038
:10100C0010BD70B50E46114604461546FFF7E8FFB5
:10101C0018B92046FFF7CDFF09E02A463146A560F6
:10102C00206800F0F7FF2268A3680021D154204605
:10103C0070BD38B5002304460360436083600373BE
:10104C000D4639B1084601F04EF8294602462046B5
:10105C00FFF7D7FF204638BD4FF6FF72034B002039
:10106C00187058809A80FFF7F5B900BF9C010020DA
:10107C00F0B5144B144F1E68144B064418683B68AB
:10108C0006449E428BB01BD00AA840F8286D00F095
:10109C00C9FE0446436901AD03F26C7343610FCC86
:1010AC000FC50FCC0FC5D4F800E0094CC5F800E013
:1010BC0001AD0FCD0FC40FCD0FC43E60C4F800E0DE
:1010CC000BB0F0BDD4010020D0010020CC010020D9
:1010DC00A401002008B50020FFF718FA28B1FFF78B
:1010EC0005FA80F00100C0B208BD012008BD000067
:1010FC0008B5FFF7BDFF024B9869013008BD00BF72
:10110C00A401002008B5FFF7B3FF024B18690130AA
:10111C0008BD00BFA401002010B50949044600F029
:10112C00E9FD60B90749204600F002FE38B90649CE
:10113C00204600F041FC00F005FE044B186010BD89
:10114C00000040C10000604100006145D401002056
:10115C0010B50021044600F0CDFD68B94FF0804178
:10116C00204600F0E5FD38B90449204600F024FC87
:10117C0000F0E8FD024B186010BD00BF0000614597
:10118C0008000020024B1A68024B1A60704700BF1F
:10119C0008000020CC010020014B00221A6070478F
:1011AC00CC010020024B1868003018BF012070479A
:1011BC00CC01002008B5FFF7BDF8BDE808400022BF
:1011CC0011461046FFF76EB937B50E4B04461B6837
:1011DC0002A819440C4B1B68194440F8041D00F07C
:1011EC0021FE00F0D5FD054600F07DFF00232844CC
:1011FC0000F8013C29462046FFF71BFF204603B0B0
:10120C0030BD00BFD4010020CC01002010B500205F
:10121C00FFF798F8044668B9FFF714F901280BD1C9
:10122C002046FFF737F938B9FFF754FF30B9FFF70D
:10123C0055F9F9E7012010BD002010BDFFF74AFF5A
:10124C000020FFF77FF8003018BF012010BD08B553
:10125C00FFF7DCFFBDE80840FFF764B808B5FFF7FF
:10126C00F6FFFFF705FF014BD86808BDA40100206D
:10127C0008B5FFF7ECFFBDE80840FFF739BF08B52C
:10128C00FFF7E5FFBDE80840FFF73CBF024B1A68CB
:10129C00024B1A60704700BF0C000020C8010020F0
:1012AC0070474174704708B5007CFFF793F820EA4B
:1012BC00E07008BD08B5007CFFF76CF820EAE07020
:1012CC0008BD08B5007CFFF775F830EA200028BF90
:1012DC004FF0FF3008BD08B5007CFFF763F830EA2B
:1012EC00200028BF4FF0FF3008BD007CFFF76AB824
:1012FC0010B50446142100F012FA204610BD70B54A
:10130C00457C04460E4625B9007CFFF763F800289F
:10131C0005DD3146207CBDE87040FFF733B8284628
:10132C0070BD000010B504460846114600226260EC
:10133C004FF47A72A260054A207422600122627412
:10134C001A46FFF717F8204610BD00BF102B0808EF
:10135C0038B50C4D296811F0010411D12846FEF75F
:10136C009AFE68B1084A2146084B0948FFF7DAFF94
:10137C002846FEF795FE074A0749054800F0CAF9CA
:10138C00034838BD7002002074020020EC010020DC
:10139C00D8010020C4000020AD1208084174704729
:1013AC00704708B50021007CFFF734F830EA2000C4
:1013BC0028BF4FF0FF3008BD08B50121007CFFF7B6
:1013CC0029F830EA200028BF4FF0FF3008BD08B5DF
:1013DC00007CFFF717F820EAE07008BD08B5007C28
:1013EC00FFF708F820EAE07008BD007CFFF722B890
:1013FC0010B50446142100F092F9204610BD38B502
:10140C000446007C0D46FEF7FDFF002801DC607CE5
:10141C0028B12946207CFFF705F820EAE07038BD9A
:10142C0010B50446002363604FF47A73A360054B38
:10143C00084623600123217463741146FEF7D2FF22
:10144C00204610BD402B080810B50446142200217C
:10145C0000F0EBFD054B20466360054BE36040F26A
:10146C00011323818123238210BD00BF7D03002043
:10147C00FC02002030B50E4D87B001A8FFF7E4FF49
:10148C00296811F0010410D12846FEF704FE60B162
:10149C0001AA21460748FFF7C3FF2846FEF700FEC6
:1014AC00054A0649034800F035F9024807B030BD3B
:1014BC00F802002080040020C4000020AD130808AE
:1014CC0010B504461422002100F0AFFD054B204658
:1014DC006360054BE36040F2011323818123238277
:1014EC0010BD00BF300500209804002010B50E4C34
:1014FC0086B001A8FFF7E4FF2368DB0710D4204671
:10150C00FEF7C9FD60B101AA01210848FFF788FF69
:10151C002046FEF7C5FD064A0649044800F0FAF8D5
:10152C00024806B010BD00BF940400201C0500202A
:10153C00C4000020AD13080808B5184B33B1FFF7F1
:10154C0099FF03681B69984700281EDC144B33B1C4
:10155C00FFF7FEFE03681B699847002818DC114B47
:10156C000BB1AFF30080104B0BB1AFF300800F4BFE
:10157C000BB1AFF300800E4B7BB1FFF7B7FF0368E5
:10158C001B699847002806DC08BDAFF30080DDE737
:10159C00AFF30080E3E7AFF3008008BD000000006C
:1015AC00000000000000000000000000000000002F
:1015BC000000000008B5FFF7BFFFFEF7ABFE014BC4
:1015CC00186008BD3C0600200248034A0349121A61
:1015DC0000F020BD0040024004400240002E0808EC
:1015EC0007B5002300931A466FF07701FEF76CFFE6
:1015FC0003B05DF804FB000007B543880A2B08D044
:10160C00502B09D1094B1B683BB103B05DF804EBBF
:10161C001847FFF7E5FF06E0002300931A466FF02A
:10162C007701FEF751FF03B05DF804FB3406002090
:10163C0038B5104C104D2368AB42104B0CBF012237
:10164C0000221A7002D0FFF7BFFF2560FEF75AFE8A
:10165C00044600F0F3FC0A4B13B12046AFF30080B4
:10166C0000210748FEF75AFFBDE838400021054825
:10167C00FEF720BF004002401E1C279A38060020AF
:10168C00000000000516080813B5084C00231A4684
:10169C00194600932046FFF787FB2046044A05496C
:1016AC0002B0BDE8104000F035B800BF4006002085
:1016BC00C40000202D0D080870B5114E114D124CB0
:1016CC0000213046FFF75AFC3046104E2A46214680
:1016DC0000F020F801213046FFF750FC30460C4E4C
:1016EC002A46214600F016F802213046FFF746FC48
:1016FC002A4621463046BDE8704000F00BB800BFCA
:10170C0048060020C4000020790F08085806002065
:10171C00680600200B460146184600F075BBFEF724
:10172C00B8BC08B5FEF782FF244B1A68D0075CBF23
:10173C0001221A60224B1A68D1075CBF01221A6081
:10174C00204B1A68D2075CBF01221A601E4B1A6824
:10175C00D0075CBF01221A601C4B1A68D1075CBF12
:10176C0001221A601A4B1A68D2075CBF01221A6058
:10177C00184B1A68D0075CBF01221A60164B1A6806
:10178C00D1075CBF01221A60144B1A68D2075CBFE8
:10179C0001221A60124B1A68D0075CBF01221A6032
:1017AC00104B1A68D1075CBF01221A600E4B1A68E5
:1017BC00D2075CBF01221A60704700BFA40600204C
:1017CC00A00600209C06002098060020940600200D
:1017DC00900600208C06002088060020840600203D
:1017EC00800600207C06002078060020184B1A6822
:1017FC00D1075CBF01221A60164B1A68D2075CBF76
:10180C0001221A60144B1A68D0075CBF01221A60BF
:10181C00124B1A68D1075CBF01221A60104B1A6870
:10182C00D2075CBF01221A600E4B1A68D0075CBF4E
:10183C0001221A600C4B1A68D1075CBF01221A6096
:10184C000A4B1A68D2075CBF01221A60704700BFAE
:10185C00C4060020C0060020BC060020B8060020EC
:10186C00B4060020B0060020AC060020A80600201C
:10187C00184B1A68D1075CBF01221A60164B1A6804
:10188C00D2075CBF01221A60144B1A68D0075CBFE8
:10189C0001221A60124B1A68D1075CBF01221A6030
:1018AC00104B1A68D2075CBF01221A600E4B1A68E3
:1018BC00D0075CBF01221A600C4B1A68D1075CBFC1
:1018CC0001221A600A4B1A68D2075CBF01221A6007
:1018DC00704700BFE4060020E0060020DC06002074
:1018EC00D8060020D4060020D0060020CC0600200C
:1018FC00C8060020244B1A68D0075CBF01221A606E
:10190C00224B1A68D1075CBF01221A60204B1A685F
:10191C00D2075CBF01221A601E4B1A68D0075CBF4D
:10192C0001221A601C4B1A68D1075CBF01221A6095
:10193C001A4B1A68D2075CBF01221A60184B1A683E
:10194C00D0075CBF01221A60164B1A68D1075CBF26
:10195C0001221A60144B1A68D2075CBF01221A606C
:10196C00124B1A68D0075CBF01221A60104B1A6820
:10197C00D1075CBF01221A600E4B1A68D2075CBFFC
:10198C0001221A60704700BF1407002010070020C6
:10199C000C07002008070020040700200007002087
:1019AC00FC060020F8060020F4060020F0060020BB
:1019BC00EC060020E80600204FF0FF0C1CEAD05289
:1019CC001EBF1CEAD15392EA0C0F93EA0C0F6FD096
:1019DC001A4480EA010C400218BF5FEA41211ED074
:1019EC004FF0006343EA501043EA5111A0FB013160
:1019FC000CF00040B1F5000F3EBF490041EAD37135
:101A0C005B0040EA010062F17F02FD2A1DD8B3F1B0
:101A1C00004F40EBC25008BF20F00100704790F01F
:101A2C00000F0CF0004C08BF49024CEA502040EA71
:101A3C0051207F3AC2BFD2F1FF0340EAC250704737
:101A4C0040F400004FF00003013A5DDC12F1190F75
:101A5C00DCBF00F000407047C2F10002410021FAE7
:101A6C0002F1C2F1200200FA02FC5FEA310040F1FF
:101A7C00000053EA4C0308BF20EADC70704792F078
:101A8C00000F00F0004C02BF400010F4000F013AB0
:101A9C00F9D040EA0C0093F0000F01F0004C02BFAB
:101AAC00490011F4000F013BF9D041EA0C018FE71A
:101ABC000CEAD15392EA0C0F18BF93EA0C0F0AD020
:101ACC0030F0004C18BF31F0004CD8D180EA010046
:101ADC0000F00040704790F0000F17BF90F0004FDF
:101AEC00084691F0000F91F0004F14D092EA0C0FC1
:101AFC0001D142020FD193EA0C0F03D14B0218BF54
:101B0C00084608D180EA010000F0004040F0FE4099
:101B1C0040F40000704740F0FE4040F44000704735
:101B2C004FF0FF0C1CEAD0521EBF1CEAD15392EAB4
:101B3C000C0F93EA0C0F69D0A2EB030280EA010CA4
:101B4C0049024FEA402037D04FF0805343EA11113D
:101B5C0043EA10130CF000408B4238BF5B0042F19B
:101B6C007D024FF4000C8B4224BF5B1A40EA0C0040
:101B7C00B3EB510F24BFA3EB510340EA5C00B3EB72
:101B8C00910F24BFA3EB910340EA9C00B3EBD10F60
:101B9C0024BFA3EBD10340EADC001B0118BF5FEAB2
:101BAC001C1CE0D1FD2A3FF650AF8B4240EBC250DB
:101BBC0008BF20F0010070470CF0004C4CEA50209C
:101BCC007F32C2BFD2F1FF0340EAC250704740F4EB
:101BDC0000004FF00003013A37E792F0000F00F0DD
:101BEC00004C02BF400010F4000F013AF9D040EA5B
:101BFC000C0093F0000F01F0004C02BF490011F4EF
:101C0C00000F013BF9D041EA0C0195E70CEAD153E6
:101C1C0092EA0C0F08D142027FF47DAF93EA0C0FCD
:101C2C007FF470AF084676E793EA0C0F04D14B02B1
:101C3C003FF44CAF08466EE730F0004C18BF31F063
:101C4C00004CCAD130F000427FF45CAF31F000435D
:101C5C007FF43CAF5FE700BF4FF0FF3C06E000BFF6
:101C6C004FF0010C02E000BF4FF0010C4DF804CD19
:101C7C004FEA40024FEA41037FEA226C18BF7FEA29
:101C8C00236C11D001B052EA530C18BF90EA010F2B
:101C9C0058BFB2EB030088BFC81738BF6FEAE170BA
:101CAC0018BF40F0010070477FEA226C02D15FEA56
:101CBC00402C05D17FEA236CE4D15FEA412CE1D0C2
:101CCC005DF8040B704700BF844608466146FFE789
:101CDC000FB5FFF7C9FF002848BF10F1000F0FBD6B
:101CEC004DF808EDFFF7F4FF0CBF012000205DF864
:101CFC0008FB00BF4DF808EDFFF7EAFF34BF0120E9
:101D0C0000205DF808FB00BF4DF808EDFFF7E0FF81
:101D1C0094BF012000205DF808FB00BF4DF808EDD2
:101D2C00FFF7D2FF94BF012000205DF808FB00BF35
:101D3C004DF808EDFFF7C8FF34BF012000205DF817
:101D4C0008FB00BF4FEA4002B2F1FE4F0FD34FF039
:101D5C009E03B3EB12620DD94FEA002343F000430C
:101D6C0010F0004F23FA02F018BF404270474FF0BA
:101D7C000000704712F1610F01D1420205D110F041
:101D8C00004008BF6FF0004070474FF000007047F4
:101D9C00094B70B51C680646256C3DB91A20FEF738
:101DAC0015FC1A222064294600F03FF9216C3046BC
:101DBC00BDE8704000F002B87400002010B50C466D
:101DCC00416986B001F26C71036982690491016802
:101DDC0003EB43030391416802EB420202918168D9
:101DEC000191C1682046009104490B4404490A44FE
:101DFC000449FEF703FC204606B010BD7D2B0808F5
:101E0C00682B0808A12B080810B5054C13462CB1FB
:101E1C000A4601460220AFF3008010BD204610BDDB
:101E2C000000000038B5074B05461C68E36B1BB976
:101E3C002420FEF7CBFBE063E16B2846BDE838407D
:101E4C0000F002B8740000202DE9F0410C468046E9
:101E5C0000F062FC21460746404600F061FC4669F2
:101E6C00044606F26C76B30705D1642296FBF2F3B6
:101E7C0002FB13634BB94FF4C87596FBF5F305FBE6
:101E8C001365B5FA85F35B0900E001235F4A302541
:101E9C0005FB032500F074FA00F074FA5C4B1B6828
:101EAC00F3B17B689E4205D13968D8F80030FA69E5
:101EBC0041B90AE0304600F0BBF90028F4D14FF0EC
:101ECC00FF330DE0934208DB01E0934207DABA6B73
:101EDC009342ACBF0023012302E0002300E0012366
:101EEC002362236A3C20012B0CBFF96B396A4FF437
:101EFC00616391FBF3F603FB161393FBF0F200FB0B
:101F0C00123061682368891AA2681B1A921B3B2B3A
:101F1C0023606160A26003DD013161603C3B04E041
:101F2C00002B03DA013961603C33236063683B2B7F
:101F3C0003DD0132A2603C3B04E0002B03DA013AE2
:101F4C00A2603C336360A368172B22DDE269183B67
:101F5C000132E261A269A3600132062AC8BF0022E5
:101F6C00A261E26823690132E26055F823108A42CB
:101F7C0046DD01330C2B08BF6369A2EB0102E26062
:101F8C0005BF013300222361226104BF6361E2615A
:101F9C0036E0002B34DAE2691833013AE261A269C7
:101FAC00A360013A48BF0622A261E268013AE260EE
:101FBC0032BB2369013B01D423611DE00B23236158
:101FCC0063695A1E12F0030F626103F26B7305D141
:101FDC00642193FBF1F201FB12324AB94FF4C87140
:101FEC0093FBF1F201FB1233B3FA83F35B0900E0CC
:101FFC00012303F5B673E361236955F82330E360DD
:10200C0000F0BFF92046BDE8F08100BF282D08087C
:10201C003407002010B5431E0A44914204D011F835
:10202C00014B03F8014FF8E710BD034602449342FD
:10203C0002D003F8011BFAE77047000038B5124BC9
:10204C0005461C68A36BD3B91820FEF7BFFA43F200
:10205C000E33A06303804AF6CD33438041F2342320
:10206C0083804EF26D63C3804DF6EC6303810523D0
:10207C0043810B23838101220023C0E90423A36B3A
:10208C0000221D615A6138BD7400002010F8012B2C
:10209C0011F8013B012A28BF9A42F7D0D01A704799
:1020AC00034611F8012B03F8012B002AF9D17047D4
:1020BC00024B0146186800F003B800BF7400002002
:1020CC0070B5064608460C4600F00DF8451C29462E
:1020DC003046FEF7B3FA064618B12A462146FFF7FA
:1020EC0099FF304670BD034613F8012B002AFBD133
:1020FC00181A0138704730B582B1451E013915F8F0
:10210C00013F11F8014FA34206D1EC431444E042C5
:10211C0001D0002BF3D11C46181B30BD104630BD2E
:10212C002DE9F0470E4680463B48D0F800903546E6
:10213C0015F8014B09EB0400407800F0080000F0A2
:10214C00FF0708B12E46F2E72D2C03D1B51C74788D
:10215C00012703E02B2C04BF7478B51C13B1102B92
:10216C000AD153E0302C4FD1287800F0DF005828EA
:10217C0045D16C78102302354FF0FF3CBCFBF3FCCF
:10218C0003FB0CFA00266FEA0A0A304609EB040E30
:10219C009EF801E01EF0040F01D0303C0BE01EF065
:1021AC00030E1AD0BEF1010F0CBF4FF0370E4FF0DB
:1021BC00570ECEEB0404A3420FDD002E08DB604566
:1021CC0006D801D1544503DC03FB0040012601E095
:1021DC004FF0FF3615F8014BD8E7002E07DA222313
:1021EC00C8F800304FF0FF302AB9BDE8F08707B1CE
:1021FC00404272B106B1691E1160BDE8F08730240F
:10220C00002BB9D10823B7E70A23B5E7302CABD0A4
:10221C00B2E7BDE8F08700BF1000002013460A4665
:10222C00014602480068FFF77BBF00BF7400002026
:10223C002DE9F74F044600F06FFA40F2B1739C425F
:10224C0040F3968040F26D156FF4F663E318A4F238
:10225C00B2729B1005FB0235A4F26D726FF0630332
:10226C0092FBF3F36FF4C8622B44A5184FF4C872B9
:10227C0094FBF2F795FBF2F502FB17471D44642320
:10228C0094FBF3F6B7FA87FE014603FB164600F102
:10229C003803019304F0030344604FEA5E1E00937D
:1022AC004FF0070C0B7A4A2B0ED14B69009AEC18A5
:1022BC0002B906B927B93B2BD4BF0023012300E098
:1022CC0000232344013B3FE0442B02D14B692B44B8
:1022DC003AE0009B2BB9002E0CBFF0464FF00108E2
:1022EC0000E0F046A946244B302202FB0838CC68AB
:1022FC00A8F1040A0123A34204DA5AF804BF0133FB
:10230C00D944F8E709F1040393FBFCFBCBEBCB0AB4
:10231C00CAEB030A4B69012CB8BF0124B3EB0A0AC0
:10232C000B6904F1804403F1FF3304F1FF3448BF1F
:10233C000AF1070AC3EBC30358F824405344A342E1
:10234C0001DB073BFBE74B448C690C4A02FB034364
:10235C000C6A234441F81C3F019B9942A2D1C369EA
:10236C00826B9342ACBF002301230360012000E089
:10237C00002003B0BDE8F08F282D08088051010023
:10238C0070477047014B186800F002B874000020C9
:10239C002DE9F04F8DB0074600F0BEF9B049044668
:1023AC00384600F0B1F9AF4E054660B9AE4BAF4AB6
:1023BC001860AF4B1860AF4B30681A605A60FEF76C
:1023CC000DF9356048E1316879B93068FEF706F9E6
:1023DC002846FFF788FE411C3846FEF72FF930607F
:1023EC0048B12946FFF75CFE05E0FFF74FFE0028D9
:1023FC0000F03281E9E72B780AAE3A2B08BF0135A1
:10240C0033469D4A9D492846FEF700F9002840F3C3
:10241C0023810A9BEF18EB5C2D2B03D101374FF076
:10242C00FF3503E02B2B08BF013701250DF1200AE6
:10243C000DF11E0B4FF000080396CDF808A0019685
:10244C00CDF800B0334607AA8D493846ADF81E804A
:10245C00ADF82080FEF7DAF8404540F3FD80BDF87A
:10246C001E20BDF820303C2101FB0233BDF81C209E
:10247C004FF4616101FB02335D437F4B25627D4D5F
:10248C00DFF808922B600A9B4A461F447B4933466F
:10249C003846FEF7BBF8404508DC2B68226A6B60B7
:1024AC00714B1A60724BC3F80080D5E00A9BC5F8DB
:1024BC000490FD18FB5C2D2B03D101354FF0FF3739
:1024CC0003E02B2B08BF013501270023ADF81C308E
:1024DC00ADF81E30ADF820300A930396CDF808A065
:1024EC000196CDF800B0334607AA65492846FEF799
:1024FC008DF8002804DC236AA3F56163E3630EE026
:10250C00BDF81E20BDF820303C2101FB0233BDF884
:10251C001C204FF4616101FB02335F43E7632746E4
:10252C000A9B4FF000091D442B782C2B08BF01355A
:10253C0095F80080B8F14D0F26D10DF126030293CA
:10254C0009AB00930396019633460DF122024D49D7
:10255C002846FEF75BF803287ED1BDF822104B1EEF
:10256C000B2B79D8BDF82420531E042B74D8BDF83E
:10257C002630062B70D887F80880F9603A617B61A9
:10258C000A9B05EB03082AE0B8F14A0F06BF434645
:10259C00013544230A220BA928460593FFF73EFE7A
:1025AC00DDF82C80ADF826004545059B14D14D2354
:1025BC00B9F1000F07D123720323E36002232361D7
:1025CC00C4F814900BE084F824300B23A36201238D
:1025DC00E3620023236302E080B23B727861022342
:1025EC00ADF81C300023ADF81E30ADF820300A9346
:1025FC0098F800302F2B0BD10396CDF808A001963C
:10260C00CDF800B0334607AA1F494046FDF7FEFF40
:10261C00BDF81E20BDF820303C2101FB0233BDF873
:10262C001C204FF4616101FB0233BB610A9D09F16F
:10263C000109B9F1020F454407F11C077FF474AF8F
:10264C006068FFF7F5FD226A074B1A60E36B9B1A73
:10265C00074A18BF012313600DB0BDE8F08F00BF0F
:10266C00882D080830070020380700208B2D08081B
:10267C003407002078000020230700208F2D080845
:10268C00B22D08089E2D0808B12D08081807002047
:10269C002DE9F84F07468B46904600F0D7F8194BBA
:1026AC001D689A463DB15C46234613F8012B42B196
:1026BC003D2A1C46F8D1384600F0C9F80020BDE888
:1026CC00F88FCBEB0404A94659F8040B0028F2D080
:1026DC0022465946FFF70FFD88B959F8043C1E19DC
:1026EC001B5D3D2B0BD1DAF800303846ED1AAD10DE
:1026FC00C8F8005000F0ABF8701CBDE8F88F4D46E0
:10270C00E1E700BFC000002007B501AAFFF7C0FF3A
:10271C0003B05DF804FB0000004870478000002007
:10272C000268464BF0B592FBF3F403FB1422002A2B
:10273C00BCBF02F5A83202F5C0724FF4616092FB87
:10274C00F0F300FB13224FF03C008B6092FBF0F394
:10275C0000FB132204F52F24ACBF04F66C2404F602
:10276C006B244B600A600723E21C92FBF3F3344D9D
:10277C00C3EBC30394FBF5F5D31A48F6AC6240F2F5
:10278C00B4578B612F4B304803FB0544B4FBF2F27A
:10279C00B4FBF7F3B4FBF0F02244D21A48F694667B
:1027AC00131A40F26D12B3FBF6F6B3FBF2F0B3FB67
:1027BC00F7F33444E31A02FB103303EB830299243E
:1027CC000232B2FBF4F25443A61C0524B6FBF4F41B
:1027DC000A2A34BF02266FF0090616444FF4C87259
:1027EC0002FB05055F1C012E98BF0135B3F5997FDF
:1027FC00A7EB040702D3A3F5997214E0820705D165
:10280C006424B0FBF4F204FB12024AB94FF4C87210
:10281C00B0FBF2F402FB1400B0FA80F2520900E0B3
:10282C0001223B331A44A5F26C750023CA614D6139
:10283C000E61CF600B620846F0BD00BF80510100F5
:10284C00B13A02004FC5FDFFB03A02007047704725
:10285C001D0008085D000808890008088D0008089C
:10286C0000000000E0763D5C606D7B5C603F8B5C43
:10287C006089045D6060A55DE0C9BB5D40FFBC5D27
:10288C00601BBD5DC06FBD5DE0CBF55D46696E69DB
:10289C00736865640053746172747570005472755A
:1028AC0065202D206279206D6F6E74680069734409
:1028BC0053547573610046616C7365202D206279E9
:1028CC00206D6F6E7468004E6F76656D6265722058
:1028DC002D20627920646179004D61726368202D2E
:1028EC0020627920646179004166746572203261DE
:1028FC006D202D20627920686F7572004265666FBD
:10290C0072652032616D202D20627920686F75729E
:10291C0000547275650046616C73650054686520DF
:10292C0074696D6520697320257320616E64207451
:10293C0068652054696D655A6F6E65206973202532
:10294C007300546573740000000000000000000068
:10295C00290708081F07080815070808870608082C
:10296C0009070808FD060808F1060808E906080822
:10297C00DF060808D50608089106080800000000C4
:10298C0000000000650708086B070808C107080865
:10299C00790708086707080800000000000000001D
:1029AC003D0D08082D0D08082F0D080866006C6EEB
:1029BC0000666E00636F64650064657461696C0029
:1029CC000D0A00253031307520005D200025640093
:1029DC002C200028293A2000205B00636F646520BE
:1029EC003D200025690064657461696C73203D208D
:1029FC0000626175640053657269616C00555342E5
:102A0C0053657269616C3100747970650070617224
:102A1C00616D00636D6400696400686E64007374BA
:102A2C00726D0066696C74006C766C00616464484D
:102A3C00616E646C65720072656D6F766548616E6F
:102A4C00646C657200656E756D48616E646C657260
:102A5C0073004A534F4E53747265616D4C6F6748E7
:102A6C00616E646C657200617070006E6F6E6500F3
:102A7C00747261636500696E666F007761726E00D7
:102A8C006572726F720070616E696300616C6C00CC
:102A9C000000000000000000DD0D0808E70D08082C
:102AAC00F10D0808FB0D0808050E0808110E0808A2
:102ABC001D0E0808290E0808310E08083B0E0808E0
:102ACC00450E08080000000000000000790F0808FF
:102ADC007B0F0808252B3033643A253032750025DE
:102AEC00592D256D2D25645425483A254D3A2553ED
:102AFC00257A0061736374696D6500000000000045
:102B0C0000000000AD120808FD1208080B1308089D
:102B1C00A50E0808C1120808E3120808CF1208080D
:102B2C00F7120808AF120808B312080800000000DA
:102B3C0000000000AD130808FD1308080B1408086A
:102B4C00A50E0808E9130808AF130808C5130808F0
:102B5C00F7130808DB130808A913080853756E4D02
:102B6C006F6E547565576564546875467269536128
:102B7C00744A616E4665624D61724170724D617945
:102B8C004A756E4A756C4175675365704F63744E28
:102B9C006F76446563252E337320252E33732533CE
:102BAC006420252E32643A252E32643A252E326466
:102BBC002025640A0000202020202020202020280E
:102BCC0028282828202020202020202020202020D9
:102BDC002020202020208810101010101010101011
:102BEC001010101010100404040404040404040451
:102BFC0010101010101010414141414141010101D0
:102C0C0001010101010101010101010101010101A8
:102C1C0001101010101010424242424242020202B5
:102C2C000202020202020202020202020202020278
:102C3C000210101010200000000000000000000026
:102C4C000000000000000000000000000000000078
:102C5C000000000000000000000000000000000068
:102C6C000000000000000000000000000000000058
:102C7C000000000000000000000000000000000048
:102C8C000000000000000000000000000000000038
:102C9C000000000000000000000000000000000028
:102CAC000000000000000000000000000000000018
:102CBC000000000000000000000000000000000008
:102CCC0000000000000000000000000000000000F8
:102CDC0000000000000000000000000000000000E8
:102CEC0000000000000000000000000000000000D8
:102CFC0000000000000000000000000000000000C8
:102D0C0000000000000000000000000000000000B7
:102D1C000000000000000000430000001F00000045
:102D2C001C0000001F0000001E0000001F0000001F
:102D3C001E0000001F0000001F0000001E0000000D
:102D4C001F0000001E0000001F0000001F000000FC
:102D5C001D0000001F0000001E0000001F000000EE
:102D6C001E0000001F0000001F0000001E000000DD
:102D7C001F0000001E0000001F000000545A0047F6
:102D8C004D54002531305B5E302D392C2B2D5D25BB
:102D9C006E004D256875256E2E256875256E2E25C1
:102DAC006875256E002F256875256E3A2568752582
:102DBC006E3A256875256E00E1020808350708088B
:102DCC00CD0D0808910E08085D0F0808651008085D
:102DDC009912080895160808C5160808351708082A
:102DEC00F91708087D1808080119080800000000E8
:042DFC0000000000D3
:042E000000000000CE
:102E04000000A0C00000803F100E0000FF2A080848
:102E1400C12B080800000000C42C0808E42C080892
:102E2400042D08080000000000000000000000005D
:102E340000000000242D080800000000000000002D
:102E4400000000000000000000000000000000007E
:102E5400000000000000000000000000000000006E
:102E6400000000000000000000000000000000005E
:102E740000000000140000208B2D08088B2D08088A
:102E840001000000000000004A00000000000000F3
:102E9400000000000000000000000000000000002E
:102EA400000000004A0000000000000000000000D4
:102EB400000000000000000000000000000000000E
:042EC4003C070020A7
:102EC800FFFFFFFF00000102030405060708090AC7
:102ED8000B0C0D0E0F101112131415161718191AC2
:082EE8001B1C1D1E1F20280009
:042EF00078563412CA
:040000050808001CCB
:00000001FF
