:020000040808EA
:1000000000000808C02D0808000006000A000501CD
:080010000402290500000000B4
:04001800B8270808F5
:10001C0009480A4908B5884205D0094A824202D0EB
:10002C00121A01F0A5FF0748074A0021121A01F025
:10003C00AAFF064808BD00BF00000020D42C080809
:10004C00C4000020C400002040070020400700200E
:10005C0070B501F09BFA074B074C1E46E41AA40836
:10006C000025A54204D056F8253098470135F8E70D
:10007C0070BD00BF9C2C0808D02C080800F014B8E8
:10008C0008B500F051F8BDE8084001F041BA00F0A5
:10009C0035BA00F03BBA0078B0FA80F040097047EE
:1000AC00012303707047000008B5054B186800F079
:1000BC00E1FF044B1868BDE8084000F0F7BF00BF33
:1000CC00000000200400002038B501F075F805464A
:1000DC0001F083F8044601F079F8231F062B1CD994
:1000EC00E31E082B1BD80138281A002801DC0B2C26
:1000FC0002E0082804DD032C14BF0020012038BDC9
:10010C0001F053F8074B90FBF3F202FB1300B0F530
:10011C00E15FB4BF0020012038BD012038BD0020B4
:10012C0038BD00BF8051010030B52D4D2D4B2A68D4
:10013C0087B053F8220000F0EBFF01F015F838B14E
:10014C00FFF7C2FF10B100F0CBFF01E000F0D2FFCF
:10015C0001F02BF8014602A800F0E4FF029C00F02D
:10016C00CFFF214B214A8021002814BF104618468E
:10017C0023461F4A00901F4800F0E8F902A800F03F
:10018C00BFFE1D4B1B4A1B781C498DF8003002A882
:10019C003C2300F0F1FB039C7CB16368013B636082
:1001AC005BB9236820469B689847A368013BA36012
:1001BC001BB923682046DB6898472B684FF47A708C
:1001CC0001332B6000F0DAF92B680A2B06D90C4CA2
:1001DC0000F038F8206000F019F9F9E707B030BDED
:1001EC00C8000020CC270808F9270808F4270808BD
:1001FC00FF270808CD000020CC0000202528080887
:10020C003C060020024B01221A7000F03BB800BFE4
:10021C00CC00002008B5024B1B68DB6B019308BDBA
:10022C002000060808B5024B1B681B6B019308BD28
:10023C00D001040808B5024B1B685B68019308BD2C
:10024C009C01040808B5024B1B685B69019308BD4F
:10025C009C01040808B5024B1B68DB69019308BDBF
:10026C009C01040808B5024B1B681B6A019308BD6E
:10027C009C01040808B5024B1B689B6D019308BDDB
:10028C009C01040808B5024B1B681B68019308BD50
:10029C00B001040808B5024B1B68DB69019308BD6B
:1002AC00B401040808B5024B1B689B69019308BD97
:1002BC00C401040808B5024B1B685B6A019308BDB6
:1002CC00C401040808B5024B1B689B6A019308BD66
:1002DC00C401040808B5024B1B68DB6A019308BD16
:1002EC00C401040808B5024B1B681B6B019308BDC5
:1002FC00C401040808B5024B1B685B6B019308BD75
:10030C00C401040808B5024B1B681B6C019308BDA3
:10031C00C401040808B5024B1B681B68019308BD97
:10032C001C00060808B5024B1B681B69019308BD2D
:10033C001C00060808B5024B1B685B69019308BDDD
:10034C001C00060808B5024B1B689B69019308BD8D
:10035C001C00060808B5024B1B68DB69019308BD3D
:10036C001C00060808B5024B1B681B6A019308BDEC
:10037C001C00060808B5024B1B681B68019308BDDE
:10038C00A401040808B5024B1B685B68019308BD07
:10039C00A401040808B5024B1B685B69019308BDF6
:1003AC00A401040808B5024B1B68DB6C019308BD63
:1003BC00A401040808B5024B1B685B6D019308BDD2
:1003CC00A401040808B5024B1B689B6D019308BD82
:1003DC00A401040808B5024B1B68DB6D019308BD32
:1003EC00A401040808B5034B1B68D3F890300193A3
:1003FC0008BD0000A401040808B5034B1B68D3F822
:10040C009C30019308BD0000A401040808B5024B00
:10041C001B689B68019308BDCC01040808B5024B0E
:10042C001B685B69019308BDCC01040808B5024B3D
:10043C001B681B6A019308BDCC01040808B5024B6C
:10044C001B681B6B019308BDCC01040808B5024B5B
:10045C001B68DB6B019308BDCC01040808B5024B8B
:10046C001B685B68019308BDC801040808B5024B02
:10047C001B689B68019308BDC801040808B5024BB2
:10048C001B68DB68019308BDC801040808B5024B62
:10049C001B681B69019308BDC801040808B5024B11
:1004AC001B685B69019308BDC801040808B5024BC1
:1004BC001B689B69019308BDC801040808B5024B71
:1004CC001B68DB69019308BDC801040808B5024B21
:1004DC001B681B6A019308BDC801040808B5024BD0
:1004EC001B681B6B019308BDC801040808B5024BBF
:1004FC001B685B6B019308BDC801040808B5024B6F
:10050C001B681B68019308BDA001040808B5024BC9
:10051C001B685B68019308BDA001040808B5024B79
:10052C001B689B68019308BDA001040808B5024B29
:10053C001B681B69019308BDA001040808B5024B98
:10054C001B689B69019308BDA001040808B5024B08
:10055C001B68DB69019308BDA001040808B5024BB8
:10056C001B68DB6A019308BDA001040808B5024BA7
:10057C001B681B6B019308BDA00104080021FFF749
:10058C0009BF10B5836804460BB901F078F8C3684D
:10059C009847A3681BB10322214620469847204662
:1005AC00BDE81040102101F068B8002211464068E7
:1005BC00FFF76CBF2DE9FF41002604AC0546104641
:1005CC008846174644F8046D01F03BFD009681B255
:1005DC00D8F8043022463846FFF71CFE20B13146CD
:1005EC00284600F07DFB03E02146284600F070FB16
:1005FC00284604B0BDE8F081002211464068FFF7A0
:10060C0065BF002211464068FFF770BF00224068AA
:10061C00FFF764BF002281F001014068FFF74EBF75
:10062C0000231A4619464068FFF740BF00231A46BC
:10063C0019464068FFF732BF002211464068FFF7A9
:10064C0015BF002202214068FFF718BF00231A468D
:10065C004068FFF703BF000038B5084C28252A4630
:10066C000021204601F08FFC4FF0FF336360044BF8
:10067C0004225A60034A25801A6038BD58010020B4
:10068C00500100203428080870470020704710B52E
:10069C000446102100F0F1FF204610BD08B508B14A
:1006AC00FFF7F5FF08BD10B58368044613B10322AC
:1006BC0001469847204610BD002202604FF69C72FE
:1006CC00828010B5B1F9044084808A8002680C687D
:1006DC0004600A6010BD10B504460068FFF716FFF1
:1006EC00204610BD38B5C468F4B12378022B03D171
:1006FC0004F10C00FFF7EFFF656835B12846FFF7F2
:10070C00D2FF1021284600F0B8FFA56835B1284665
:10071C00FFF7C9FF1021284600F0AFFF2046BDE8C7
:10072C003840142100F0A9BF38BD38B5046805461F
:10073C007CB16368013B63605BB9236820469B68AE
:10074C009847A368013BA3601BB923682046DB686C
:10075C009847284638BD13B5044691E80500002398
:10076C004B600B602060626001A801930093FFF75F
:10077C00DCFF204602B010BD0B68036013B15A6851
:10078C0001325A607047F7B50C4606460F4654F8CE
:10079C00043B02AD45F8083D214601A8FFF7ECFFEC
:1007AC0029463046FFF7D7FF01A8FFF7BEFF2046CA
:1007BC00FFF7BBFF3846082100F05FFF304603B05F
:1007CC00F0BD13B50B46044603C88DE8030093E84F
:1007DC00030084E803009DE8030083E8030002B0F3
:1007EC0010BD000038B500230446036010200D46F0
:1007FC00FFF74DFC28B1012343608360024BC560B9
:10080C0003602060204638BD68280808826810B54F
:10081C000AB900F034FFC368BDE81040184708B5AA
:10082C00006800F11001FFF7F1FF08BD826810B5F8
:10083C000AB900F024FFC368BDE81040184708B59A
:10084C00006800F11001FFF7F1FF08BD38B5002377
:10085C0083608B6804460D462BB102229847EB68E7
:10086C00E360AB68A360204638BD0000F0B589B0EA
:10087C0004686846FFF720FF4FF0020200238DF852
:10088C000830D4E84F3F002B03D1C4E8412F002996
:10089C00F7D102D08DF8083063E014F10C0503D0C9
:1008AC0069462846FFF708FFBFF35F8F012363708B
:1008BC00BFF35F8F04F10803002053E8006F43E897
:1008CC000002002AF9D1BFF35F8F002E49D0FFF749
:1008DC0069FD20B129463046FFF798FF3AE03146D2
:1008EC0002A8FFF7B3FFE068B4F9105008B101F0AB
:1008FC008DFB06901020ADF81C50FFF7C8FB054689
:10090C00E8B1002787601820FFF7C1FB044688B1C7
:10091C000146876002A8FFF754FF049BA268A360FE
:10092C00059B0492E26806A9E36004F110000592AD
:10093C00FFF7C2FE0D4B2C60EB600D4BAB6006A8B5
:10094C00FFF7C9FE02A8FFF7AEFE002229460948B0
:10095C00FFF730FD3046FFF7A6FE1021304600F0C1
:10096C008CFE6846FFF7B7FE09B0F0BD2B080808EF
:10097C00A10A08088F0508082DE9F04F8BB0064630
:10098C000F46904699469DF850A0FFF747FD07ADDE
:10099C00834630BB4FF62E73059005A92846ADF85B
:1009AC001830FFF789FE1420FFF771FB044658B18D
:1009BC000223037001234370C0F804B0C0F808B0E0
:1009CC0029460C30FFF778FE3046214640F8044BA0
:1009DC00FFF708FF2846FFF77EFE05A8FFF77BFE12
:1009EC0052E000240C2314206C60AC600793FFF7DA
:1009FC004EFB014618B1047044704460846004A836
:100A0C000391FFF7EFFE224B08200893FFF73FFB03
:100A1C00044628B1039B04A940F8043BFFF7ACFE45
:100A2C0000955FFA8AF34A46414638460994FFF727
:100A3C00FDFC20B9039B5B7803F0FF0283B1039BA1
:100A4C0004A906A80593FFF797FE05A93046FFF702
:100A5C0082FE06A8FFF769FE04A8FFF766FE13E006
:100A6C004FF69C7305A903A80592ADF81830FFF753
:100A7C00FDFE05A8FFF72FFE05A80999FFF783FED9
:100A8C0006A8FFF752FEDAE730460BB0BDE8F08F50
:100A9C00110C0808022AF8B5044606D0032A17D010
:100AAC00012A22D10B6803601FE018200E68FFF7A3
:100ABC00EEFA054650B13146FFF7C8FE3069B6F97B
:100ACC00147008B101F0A2FA2861AF8225600CE025
:100ADC00046854B104F11000FFF7FDFD2046FFF748
:100AEC00E2FD1821204600F0C8FD0020F8BD38B505
:100AFC00002383608B6804460D462BB10222984775
:100B0C00EB68E360AB68A360204638BD022A70B581
:100B1C00044606D0032A11D0012A18D10B680360B1
:100B2C0015E014200E68FFF7B2FA054620B13146E5
:100B3C00FFF7DDFF337C2B74256008E0046834B1CB
:100B4C002046FFF7B0FD1421204600F096FD002052
:100B5C0070BD0000F0B50C46BFF35F8F87B000236B
:100B6C0050E8006F40E80032002AF9D1BFF35F8FE4
:100B7C00002E3FD01846FFF715FC074620B1214642
:100B8C003046FFF753FE2EE0314601A8FFF7AFFFCA
:100B9C00237810208DF81430FFF779FA0546D0B180
:100BAC0087601420FFF773FA044678B1876001461A
:100BBC0001A8FFF706FE039BA268A360049B0392A7
:100BCC00E268E3609DF81430049223740A4B2C60A5
:100BDC00EB600A4BAB6001A8FFF765FD00222946CC
:100BEC000748FFF7E7FB3046FFF75DFD1021304665
:100BFC0000F043FD07B0F0BD4B080808190B0808BE
:100C0C008F05080830B5044685B00D466846114678
:100C1C00FFF7B9FD7CB124B228460DB101F0F6F90D
:100C2C00029002A96846ADF80C40FFF71FFE02A81F
:100C3C00FFF751FD1DE04FF0010200988DF80840C0
:100C4C00D0E84F3FA34203D1C0E8412F0029F7D190
:100C5C0002D08DF808300CE010F10C014FF00103BC
:100C6C0018BF0373BFF35F8F043000F8033CFFF72A
:100C7C0071FF01A8FFF759FD05B030BD704710B5E5
:100C8C000446082100F0F9FC204610BDF8B50F46CB
:100C9C0000F10806051D002416F8011D0A2238462D
:100CAC0000F0FBF8AE42044407D0002CF4D02E2107
:100CBC00384600F0C5F80444EEE72046F8BD0000C5
:100CCC00024A026000224260704700BF8428080874
:100CDC00024A02600A684260704700BF8428080814
:100CEC00014A4160026070478428080810B59DF8DD
:100CFC00084044EA032343EA024242EA01614160AC
:100D0C0010BD000037B5044D05609DF818500095D6
:100D1C00FFF7ECFF03B030BD84280808014A024BF2
:100D2C001A6070474B2908088001002000231A46DE
:100D3C004068FFF793BB002202214068FFF79EBB7F
:100D4C00002211464068FFF791BB00221146406813
:100D5C00FFF79CBB00231A4619464068FFF79EBB61
:100D6C0000231A4619464068FFF7A0BB002281F009
:100D7C0001014068FFF7A2BB00224068FFF7AEBB41
:100D8C00002211464068FFF7B1BB002211464068B3
:100D9C00FFF79CBBF0B5174687B0054604A8FFF7D4
:100DAC008FFF002606AC384644F80C6D01F049F96B
:100DBC000A4B009681B25B6822463846FFF72AFA46
:100DCC0020B131462846FFF78BFF03E02146284629
:100DDC00FFF77EFF284607B0F0BD00BF5001002092
:100DEC00024B034A1A6000225A60704784010020AB
:100DFC007C290808F8B506460D468F180024BD421C
:100E0C000CD0336815F8011B9B68304698470028B6
:100E1C0001DB0444F3E7002C08BF04462046F8BD70
:100E2C0070B505460C46084649B101F00AF92B6825
:100E3C00024621462846BDE87040DB68184770BD65
:100E4C0003689B681847012A98BF0A2230B50B46E5
:100E5C008BB000218DF824100DF12304B3FBF2F5B7
:100E6C0005FB1233DBB2092B94BF30333733DBB2C3
:100E7C00214604F801392B46002DEFD1FFF7D0FFA6
:100E8C000BB030BD10B422B90368C9B29B6810BC5A
:100E9C001847D2B210BCFFF7D6BFFFF7F3BF10B59F
:100EAC000446FFF700FC204610BD00000348002359
:100EBC008360034A034900F0DBBB00BF8C010020B8
:100ECC00C4000020AB0E0808704710B50446102172
:100EDC0000F0D3FB204610BD70B504460E46074B00
:100EEC000025036040F80C5FFFF79CF93046267133
:100EFC00FFF7D0F9A560204670BD00BFB0290808E7
:100F0C0010B504460068FFF701FB204610BD10B574
:100F1C000446006808B1FFF7F9FA00232360A360C8
:100F2C00636010BD38B504460D4600680131FFF70B
:100F3C00F5FA10B184E82100012038BD10B5036822
:100F4C00044613B143688B4207D22046FFF7EAFFF1
:100F5C0020B1A3680BB922681370012010BD70B5C5
:100F6C000E46114604461546FFF7E8FF18B9204611
:100F7C00FFF7CDFF09E02A463146A560206800F056
:100F8C00F7FF2268A3680021D154204670BD38B504
:100F9C000023044603604360836003730D4639B13C
:100FAC00084601F04EF8294602462046FFF7D7FFC7
:100FBC00204638BD4FF6FF72034B00201870588046
:100FCC009A80FFF7DFB900BF9C010020F0B5144BED
:100FDC00144F1E68144B064418683B6806449E4226
:100FEC008BB01BD00AA840F8286D00F0C9FE04464F
:100FFC00436901AD03F26C7343610FCC0FC50FCC89
:10100C000FC5D4F800E0094CC5F800E001AD0FCDD8
:10101C000FC40FCD0FC43E60C4F800E00BB0F0BDA0
:10102C00D4010020D0010020CC010020A40100201C
:10103C0008B50020FFF702FA28B1FFF7EFF980F0AE
:10104C000100C0B208BD012008BD000008B5FFF7C3
:10105C00BDFF024B9869013008BD00BFA401002000
:10106C0008B5FFF7B3FF024B1869013008BD00BF8C
:10107C00A401002010B50949044600F0E9FD60B94F
:10108C000749204600F002FE38B90649204600F018
:10109C0041FC00F005FE044B186010BD000040C17F
:1010AC000000604100006145D401002010B5002112
:1010BC00044600F0CDFD68B94FF08041204600F0A9
:1010CC00E5FD38B90449204600F024FC00F0E8FDA9
:1010DC00024B186010BD00BF0000614508000020E5
:1010EC00024B1A68024B1A60704700BF08000020C0
:1010FC00CC010020014B00221A607047CC0100206B
:10110C00024B1868003018BF01207047CC0100203A
:10111C0008B5FFF7A7F8BDE80840002211461046B5
:10112C00FFF758B937B50E4B04461B6802A8194493
:10113C000C4B1B68194440F8041D00F021FE00F014
:10114C00D5FD054600F07DFF0023284400F8013C46
:10115C0029462046FFF71BFF204603B030BD00BFD9
:10116C00D4010020CC01002010B50020FFF782F83C
:10117C00044668B9FFF7FEF801280BD12046FFF7AB
:10118C0021F938B9FFF754FF30B9FFF73FF9F9E708
:10119C00012010BD002010BDFFF74AFF0020FFF713
:1011AC0069F8003018BF012010BD08B5FFF7DCFF4F
:1011BC00BDE80840FFF74EB808B5FFF7F6FFFFF79C
:1011CC0005FF014BD86808BDA401002008B5FFF746
:1011DC00ECFFBDE80840FFF739BF08B5FFF7E5FFA6
:1011EC00BDE80840FFF73CBF024B1A68024B1A607F
:1011FC00704700BF0C000020C801002070474174EC
:10120C00704708B5007CFFF77DF820EAE07008BD58
:10121C0008B5007CFFF756F820EAE07008BD08B569
:10122C00007CFFF75FF830EA200028BF4FF0FF305A
:10123C0008BD08B5007CFFF74DF830EA200028BF48
:10124C004FF0FF3008BD007CFFF754B810B50446D2
:10125C00142100F012FA204610BD70B5457C0446EE
:10126C000E4625B9007CFFF74DF8002805DD314608
:10127C00207CBDE87040FFF71DB8284670BD00000B
:10128C0010B5044608461146002262604FF47A728B
:10129C00A260054A20742260012262741A46FFF78C
:1012AC0001F8204610BD00BFE829080838B50C4DE0
:1012BC00296811F0010411D12846FEF7ECFE68B143
:1012CC00084A2146084B0948FFF7DAFF2846FEF783
:1012DC00E7FE074A0749054800F0CAF9034838BD3C
:1012EC007002002074020020EC010020D8010020C4
:1012FC00C40000200912080841747047704708B5F3
:10130C000021007CFFF71EF830EA200028BF4FF0C8
:10131C00FF3008BD08B50121007CFFF713F830EA57
:10132C00200028BF4FF0FF3008BD08B5007CFFF748
:10133C0001F820EAE07008BD08B5007CFEF7F2FF6A
:10134C0020EAE07008BD007CFFF70CB810B504462D
:10135C00142100F092F9204610BD38B50446007CEB
:10136C000D46FEF7E7FF002801DC607C28B129461A
:10137C00207CFEF7EFFF20EAE07038BD10B5044684
:10138C00002363604FF47A73A360054B0846236017
:10139C000123217463741146FEF7BCFF204610BD77
:1013AC00182A080810B504461422002100F0EBFDA1
:1013BC00054B20466360054BE36040F2011323812B
:1013CC008123238210BD00BF7D030020FC0200207E
:1013DC0030B50E4D87B001A8FFF7E4FF296811F076
:1013EC00010410D12846FEF756FE60B101AA214631
:1013FC000748FFF7C3FF2846FEF752FE054A064989
:10140C00034800F035F9024807B030BDF80200205F
:10141C0080040020C40000200913080810B50446FD
:10142C001422002100F0AFFD054B20466360054BF4
:10143C00E36040F2011323818123238210BD00BF9E
:10144C00300500209804002010B50E4C86B001A881
:10145C00FFF7E4FF2368DB0710D42046FEF71BFEE2
:10146C0060B101AA01210848FFF788FF2046FEF76A
:10147C0017FE064A0649044800F0FAF8024806B07E
:10148C0010BD00BF940400201C050020C4000020E7
:10149C000913080808B5184B33B1FFF799FF036817
:1014AC001B69984700281EDC144B33B1FFF7FEFE76
:1014BC0003681B699847002818DC114B0BB1AFF37C
:1014CC000080104B0BB1AFF300800F4B0BB1AFF39F
:1014DC0000800E4B7BB1FFF7B7FF03681B69984781
:1014EC00002806DC08BDAFF30080DDE7AFF3008019
:1014FC00E3E7AFF3008008BD00000000000000002F
:10150C0000000000000000000000000000000000CF
:10151C0008B5FFF7BFFFFEF795FE014B186008BD3D
:10152C003C0600200248034A0349121A00F020BD71
:10153C000040024004400240D02C080807B50023AC
:10154C0000931A466FF07701FEF756FF03B05DF873
:10155C0004FB000007B543880A2B08D0502B09D197
:10156C00094B1B683BB103B05DF804EB1847FFF760
:10157C00E5FF06E0002300931A466FF07701FEF7B3
:10158C003BFF03B05DF804FB3406002038B5104C6B
:10159C00104D2368AB42104B0CBF012200221A7075
:1015AC0002D0FFF7BFFF2560FEF744FE044600F0B3
:1015BC00F3FC0A4B13B12046AFF30080002107481F
:1015CC00FEF744FFBDE8384000210548FEF70ABF8E
:1015DC00004002401E1C279A380600200000000024
:1015EC006115080813B5084C00231A4619460093D8
:1015FC002046FFF787FB2046044A054902B0BDE8A8
:10160C00104000F035B800BF40060020C400002098
:10161C00890C080870B5114E114D124C0021304642
:10162C00FFF75AFC3046104E2A46214600F020F8AF
:10163C0001213046FFF750FC30460C4E2A4621461D
:10164C0000F016F802213046FFF746FC2A462146E8
:10165C003046BDE8704000F00BB800BF48060020D3
:10166C00C4000020D50E080858060020680600208B
:10167C000B460146184600F075BBFEF70ABD08B5CF
:10168C00FEF76CFF244B1A68D0075CBF01221A606E
:10169C00224B1A68D1075CBF01221A60204B1A68D2
:1016AC00D2075CBF01221A601E4B1A68D0075CBFC0
:1016BC0001221A601C4B1A68D1075CBF01221A6008
:1016CC001A4B1A68D2075CBF01221A60184B1A68B1
:1016DC00D0075CBF01221A60164B1A68D1075CBF99
:1016EC0001221A60144B1A68D2075CBF01221A60DF
:1016FC00124B1A68D0075CBF01221A60104B1A6893
:10170C00D1075CBF01221A600E4B1A68D2075CBF6E
:10171C0001221A60704700BFA4060020A00600201A
:10172C009C060020980600209406002090060020BD
:10173C008C060020880600208406002080060020ED
:10174C007C06002078060020184B1A68D1075CBF75
:10175C0001221A60164B1A68D2075CBF01221A606C
:10176C00144B1A68D0075CBF01221A60124B1A681E
:10177C00D1075CBF01221A60104B1A68D2075CBFFC
:10178C0001221A600E4B1A68D0075CBF01221A6046
:10179C000C4B1A68D1075CBF01221A600A4B1A68FD
:1017AC00D2075CBF01221A60704700BFC40600203C
:1017BC00C0060020BC060020B8060020B40600209D
:1017CC00B0060020AC060020A8060020184B1A68B2
:1017DC00D1075CBF01221A60164B1A68D2075CBF96
:1017EC0001221A60144B1A68D0075CBF01221A60E0
:1017FC00124B1A68D1075CBF01221A60104B1A6891
:10180C00D2075CBF01221A600E4B1A68D0075CBF6E
:10181C0001221A600C4B1A68D1075CBF01221A60B6
:10182C000A4B1A68D2075CBF01221A60704700BFCE
:10183C00E4060020E0060020DC060020D80600208C
:10184C00D4060020D0060020CC060020C8060020BC
:10185C00244B1A68D0075CBF01221A60224B1A680D
:10186C00D1075CBF01221A60204B1A68D2075CBFFB
:10187C0001221A601E4B1A68D0075CBF01221A6045
:10188C001C4B1A68D1075CBF01221A601A4B1A68EC
:10189C00D2075CBF01221A60184B1A68D0075CBFD4
:1018AC0001221A60164B1A68D1075CBF01221A601C
:1018BC00144B1A68D2075CBF01221A60124B1A68CB
:1018CC00D0075CBF01221A60104B1A68D1075CBFAD
:1018DC0001221A600E4B1A68D2075CBF01221A60F3
:1018EC00704700BF14070020100700200C070020D1
:1018FC00080700200407002000070020FC06002039
:10190C00F8060020F4060020F0060020EC0600206B
:10191C00E80600204FF0FF0C1CEAD0521EBF1CEA58
:10192C00D15392EA0C0F93EA0C0F6FD01A4480EA51
:10193C00010C400218BF5FEA41211ED04FF000633A
:10194C0043EA501043EA5111A0FB01310CF0004066
:10195C00B1F5000F3EBF490041EAD3715B0040EA8C
:10196C00010062F17F02FD2A1DD8B3F1004F40EB5C
:10197C00C25008BF20F00100704790F0000F0CF02F
:10198C00004C08BF49024CEA502040EA51207F3AF3
:10199C00C2BFD2F1FF0340EAC250704740F40000CE
:1019AC004FF00003013A5DDC12F1190FDCBF00F0BF
:1019BC0000407047C2F10002410021FA02F1C2F16D
:1019CC00200200FA02FC5FEA310040F1000053EA09
:1019DC004C0308BF20EADC70704792F0000F00F057
:1019EC00004C02BF400010F4000F013AF9D040EA5D
:1019FC000C0093F0000F01F0004C02BF490011F4F1
:101A0C00000F013BF9D041EA0C018FE70CEAD153EE
:101A1C0092EA0C0F18BF93EA0C0F0AD030F0004C6E
:101A2C0018BF31F0004CD8D180EA010000F0004022
:101A3C00704790F0000F17BF90F0004F084691F0E0
:101A4C00000F91F0004F14D092EA0C0F01D142021A
:101A5C000FD193EA0C0F03D14B0218BF084608D1E3
:101A6C0080EA010000F0004040F0FE4040F400002D
:101A7C00704740F0FE4040F4400070474FF0FF0CC0
:101A8C001CEAD0521EBF1CEAD15392EA0C0F93EA07
:101A9C000C0F69D0A2EB030280EA010C49024FEA59
:101AAC00402037D04FF0805343EA111143EA101312
:101ABC000CF000408B4238BF5B0042F17D024FF4CA
:101ACC00000C8B4224BF5B1A40EA0C00B3EB510FA5
:101ADC0024BFA3EB510340EA5C00B3EB910F24BF8E
:101AEC00A3EB910340EA9C00B3EBD10F24BFA3EB13
:101AFC00D10340EADC001B0118BF5FEA1C1CE0D1DB
:101B0C00FD2A3FF650AF8B4240EBC25008BF20F08D
:101B1C00010070470CF0004C4CEA50207F32C2BFE1
:101B2C00D2F1FF0340EAC250704740F400004FF07E
:101B3C000003013A37E792F0000F00F0004C02BFAF
:101B4C00400010F4000F013AF9D040EA0C0093F079
:101B5C00000F01F0004C02BF490011F4000F013BD3
:101B6C00F9D041EA0C0195E70CEAD15392EA0C0F3B
:101B7C0008D142027FF47DAF93EA0C0F7FF470AF73
:101B8C00084676E793EA0C0F04D14B023FF44CAFB6
:101B9C0008466EE730F0004C18BF31F0004CCAD14B
:101BAC0030F000427FF45CAF31F000437FF43CAF87
:101BBC005FE700BF4FF0FF3C06E000BF4FF0010CA9
:101BCC0002E000BF4FF0010C4DF804CD4FEA40028B
:101BDC004FEA41037FEA226C18BF7FEA236C11D0D5
:101BEC0001B052EA530C18BF90EA010F58BFB2EB88
:101BFC00030088BFC81738BF6FEAE17018BF40F008
:101C0C00010070477FEA226C02D15FEA402C05D1BB
:101C1C007FEA236CE4D15FEA412CE1D05DF8040B40
:101C2C00704700BF844608466146FFE70FB5FFF7D3
:101C3C00C9FF002848BF10F1000F0FBD4DF808ED8B
:101C4C00FFF7F4FF0CBF012000205DF808FB00BF7C
:101C5C004DF808EDFFF7EAFF34BF012000205DF8D6
:101C6C0008FB00BF4DF808EDFFF7E0FF94BF012023
:101C7C0000205DF808FB00BF4DF808EDFFF7D2FF20
:101C8C0094BF012000205DF808FB00BF4DF808ED63
:101C9C00FFF7C8FF34BF012000205DF808FB00BF30
:101CAC004FEA4002B2F1FE4F0FD34FF09E03B3EB5D
:101CBC0012620DD94FEA002343F0004310F0004F9D
:101CCC0023FA02F018BF404270474FF000007047F3
:101CDC0012F1610F01D1420205D110F0004008BF92
:101CEC006FF0004070474FF000007047094B70B523
:101CFC001C680646256C3DB91A20FEF7FFFB1A221C
:101D0C002064294600F03FF9216C3046BDE8704054
:101D1C0000F002B87400002010B50C46416986B082
:101D2C0001F26C71036982690491016803EB43034E
:101D3C000391416802EB4202029181680191C168F2
:101D4C002046009104490B4404490A440449FEF717
:101D5C00EDFB204606B010BD552A0808402A08089D
:101D6C00792A080810B5054C13462CB10A460146D1
:101D7C000220AFF3008010BD204610BD0000000013
:101D8C0038B5074B05461C68E36B1BB92420FEF7DE
:101D9C00B5FBE063E16B2846BDE8384000F002B8C3
:101DAC00740000202DE9F0410C46804600F062FCE6
:101DBC0021460746404600F061FC4669044606F29F
:101DCC006C76B30705D1642296FBF2F302FB136326
:101DDC004BB94FF4C87596FBF5F305FB1365B5FAD3
:101DEC0085F35B0900E001235F4A302505FB0325E1
:101DFC0000F074FA00F074FA5C4B1B68F3B17B686A
:101E0C009E4205D13968D8F80030FA6941B90AE028
:101E1C00304600F0BBF90028F4D14FF0FF330DE051
:101E2C00934208DB01E0934207DABA6B9342ACBFF2
:101E3C000023012302E0002300E001232362236A34
:101E4C003C20012B0CBFF96B396A4FF4616391FB99
:101E5C00F3F603FB161393FBF0F200FB12306168F0
:101E6C002368891AA2681B1A921B3B2B23606160A2
:101E7C00A26003DD013161603C3B04E0002B03DA1E
:101E8C00013961603C33236063683B2B03DD013215
:101E9C00A2603C3B04E0002B03DA013AA2603C3325
:101EAC006360A368172B22DDE269183B0132E26103
:101EBC00A269A3600132062AC8BF0022A261E268AF
:101ECC0023690132E26055F823108A4246DD013362
:101EDC000C2B08BF6369A2EB0102E26005BF013362
:101EEC0000222361226104BF6361E26136E0002BB2
:101EFC0034DAE2691833013AE261A269A360013A6B
:101F0C0048BF0622A261E268013AE26032BB236953
:101F1C00013B01D423611DE00B23236163695A1E2D
:101F2C0012F0030F626103F26B7305D1642193FB12
:101F3C00F1F201FB12324AB94FF4C87193FBF1F282
:101F4C0001FB1233B3FA83F35B0900E0012303F5C1
:101F5C00B673E361236955F82330E36000F0BFF9F1
:101F6C002046BDE8F08100BF002C08083407002093
:101F7C0010B5431E0A44914204D011F8014B03F8EA
:101F8C00014FF8E710BD03460244934202D003F818
:101F9C00011BFAE77047000038B5124B05461C6868
:101FAC00A36BD3B91820FEF7A9FA43F20E33A06342
:101FBC0003804AF6CD33438041F2342383804EF2C2
:101FCC006D63C3804DF6EC630381052343810B23C2
:101FDC00838101220023C0E90423A36B00221D612D
:101FEC005A6138BD7400002010F8012B11F8013B28
:101FFC00012A28BF9A42F7D0D01A7047034611F82D
:10200C00012B03F8012B002AF9D17047024B014632
:10201C00186800F003B800BF7400002070B50646C5
:10202C0008460C4600F00DF8451C29463046FEF7D4
:10203C009DFA064618B12A462146FFF799FF30460D
:10204C0070BD034613F8012B002AFBD1181A013876
:10205C00704730B582B1451E013915F8013F11F8B2
:10206C00014FA34206D1EC431444E04201D0002BB3
:10207C00F3D11C46181B30BD104630BD2DE9F0477E
:10208C000E4680463B48D0F80090354615F8014B7B
:10209C0009EB0400407800F0080000F0FF0708B1DD
:1020AC002E46F2E72D2C03D1B51C7478012703E0E2
:1020BC002B2C04BF7478B51C13B1102B0AD153E030
:1020CC00302C4FD1287800F0DF00582845D16C789F
:1020DC00102302354FF0FF3CBCFBF3FC03FB0CFA66
:1020EC0000266FEA0A0A304609EB040E9EF801E05E
:1020FC001EF0040F01D0303C0BE01EF0030E1AD082
:10210C00BEF1010F0CBF4FF0370E4FF0570ECEEB58
:10211C000404A3420FDD002E08DB604506D801D174
:10212C00544503DC03FB0040012601E04FF0FF3671
:10213C0015F8014BD8E7002E07DA2223C8F8003037
:10214C004FF0FF302AB9BDE8F08707B1404272B1B9
:10215C0006B1691E1160BDE8F0873024002BB9D19F
:10216C000823B7E70A23B5E7302CABD0B2E7BDE8BC
:10217C00F08700BF1000002013460A4601460248B3
:10218C000068FFF77BBF00BF740000202DE9F74FFC
:10219C00044600F06FFA40F2B1739C4240F3968013
:1021AC0040F26D156FF4F663E318A4F2B2729B1053
:1021BC0005FB0235A4F26D726FF0630392FBF3F32F
:1021CC006FF4C8622B44A5184FF4C87294FBF2F755
:1021DC0095FBF2F502FB17471D44642394FBF3F6C1
:1021EC00B7FA87FE014603FB164600F1380301934C
:1021FC0004F0030344604FEA5E1E00934FF0070C9B
:10220C000B7A4A2B0ED14B69009AEC1802B906B91D
:10221C0027B93B2BD4BF0023012300E00023234428
:10222C00013B3FE0442B02D14B692B443AE0009B2D
:10223C002BB9002E0CBFF0464FF0010800E0F04621
:10224C00A946244B302202FB0838CC68A8F1040ABA
:10225C000123A34204DA5AF804BF0133D944F8E746
:10226C0009F1040393FBFCFBCBEBCB0ACAEB030A8F
:10227C004B69012CB8BF0124B3EB0A0A0B6904F1BA
:10228C00804403F1FF3304F1FF3448BF0AF1070A1D
:10229C00C3EBC30358F824405344A34201DB073B70
:1022AC00FBE74B448C690C4A02FB03430C6A234446
:1022BC0041F81C3F019B9942A2D1C369826B9342A6
:1022CC00ACBF002301230360012000E0002003B019
:1022DC00BDE8F08F002C0808805101007047704752
:1022EC00014B186800F002B8740000202DE9F04F83
:1022FC008DB0074600F0BEF9B0490446384600F0F0
:10230C00B1F9AF4E054660B9AE4BAF4A1860AF4B52
:10231C001860AF4B30681A605A60FEF7F7F83560FA
:10232C0048E1316879B93068FEF7F0F82846FFF7D4
:10233C0088FE411C3846FEF719F9306048B1294631
:10234C00FFF75CFE05E0FFF74FFE002800F032813E
:10235C00E9E72B780AAE3A2B08BF013533469D4A84
:10236C009D492846FEF7EAF8002840F323810A9B92
:10237C00EF18EB5C2D2B03D101374FF0FF3503E049
:10238C002B2B08BF013701250DF1200A0DF11E0B77
:10239C004FF000080396CDF808A00196CDF800B0D8
:1023AC00334607AA8D493846ADF81E80ADF820801B
:1023BC00FEF7C4F8404540F3FD80BDF81E20BDF883
:1023CC0020303C2101FB0233BDF81C204FF461612D
:1023DC0001FB02335D437F4B25627D4DDFF8089294
:1023EC002B600A9B4A461F447B4933463846FEF70E
:1023FC00A5F8404508DC2B68226A6B60714B1A60AB
:10240C00724BC3F80080D5E00A9BC5F80490FD1808
:10241C00FB5C2D2B03D101354FF0FF3703E02B2B49
:10242C0008BF013501270023ADF81C30ADF81E3074
:10243C00ADF820300A930396CDF808A00196CDF89C
:10244C0000B0334607AA65492846FEF777F80028FE
:10245C0004DC236AA3F56163E3630EE0BDF81E2080
:10246C00BDF820303C2101FB0233BDF81C204FF499
:10247C00616101FB02335F43E76327460A9B4FF020
:10248C0000091D442B782C2B08BF013595F80080D2
:10249C00B8F14D0F26D10DF12603029309AB009331
:1024AC000396019633460DF122024D492846FEF75C
:1024BC0045F803287ED1BDF822104B1E0B2B79D882
:1024CC00BDF82420531E042B74D8BDF82630062BDF
:1024DC0070D887F80880F9603A617B610A9B05EB3C
:1024EC0003082AE0B8F14A0F06BF434601354423DE
:1024FC000A220BA928460593FFF73EFEDDF82C8037
:10250C00ADF826004545059B14D14D23B9F1000FBC
:10251C0007D123720323E36002232361C4F81490D0
:10252C000BE084F824300B23A3620123E362002325
:10253C00236302E080B23B7278610223ADF81C3059
:10254C000023ADF81E30ADF820300A9398F8003017
:10255C002F2B0BD10396CDF808A00196CDF800B027
:10256C00334607AA1F494046FDF7E8FFBDF81E2079
:10257C00BDF820303C2101FB0233BDF81C204FF488
:10258C00616101FB0233BB610A9D09F10109B9F1DB
:10259C00020F454407F11C077FF474AF6068FFF726
:1025AC00F5FD226A074B1A60E36B9B1A074A18BFAA
:1025BC00012313600DB0BDE8F08F00BF602C08083C
:1025CC003007002038070020632C0808340700204F
:1025DC007800002023070020672C08088A2C0808A4
:1025EC00762C0808892C0808180700202DE9F84FCC
:1025FC0007468B46904600F0D7F8194B1D689A4653
:10260C003DB15C46234613F8012B42B13D2A1C46D2
:10261C00F8D1384600F0C9F80020BDE8F88FCBEBB4
:10262C000404A94659F8040B0028F2D02246594656
:10263C00FFF70FFD88B959F8043C1E191B5D3D2BA3
:10264C000BD1DAF800303846ED1AAD10C8F800504E
:10265C0000F0ABF8701CBDE8F88F4D46E1E700BF09
:10266C00C000002007B501AAFFF7C0FF03B05DF85A
:10267C0004FB000000487047800000200268464BB5
:10268C00F0B592FBF3F403FB1422002ABCBF02F555
:10269C00A83202F5C0724FF4616092FBF0F300FBBC
:1026AC0013224FF03C008B6092FBF0F300FB1322E3
:1026BC0004F52F24ACBF04F66C2404F66B244B6099
:1026CC000A600723E21C92FBF3F3344DC3EBC30304
:1026DC0094FBF5F5D31A48F6AC6240F2B4578B6113
:1026EC002F4B304803FB0544B4FBF2F2B4FBF7F379
:1026FC00B4FBF0F02244D21A48F69466131A40F256
:10270C006D12B3FBF6F6B3FBF2F0B3FBF7F3344404
:10271C00E31A02FB103303EB830299240232B2FB5F
:10272C00F4F25443A61C0524B6FBF4F40A2A34BF75
:10273C0002266FF0090616444FF4C87202FB050519
:10274C005F1C012E98BF0135B3F5997FA7EB0407E9
:10275C0002D3A3F5997214E0820705D16424B0FB6F
:10276C00F4F204FB12024AB94FF4C872B0FBF2F453
:10277C0002FB1400B0FA80F2520900E001223B3354
:10278C001A44A5F26C750023CA614D610E61CF60CD
:10279C000B620846F0BD00BF80510100B13A020047
:1027AC004FC5FDFFB03A0200704770471D00080886
:1027BC005D000808890008088D000808000000006A
:1027CC00E0763D5C606D7B5C603F8B5C6089045D9A
:1027DC006060A55DE0C9BB5D8018BE5DE06CBE5D50
:1027EC0040C1BE5DE0CBF55D547275650046616C11
:1027FC007365005468652074696D652069732025C4
:10280C007320616E64207468652054696D655A6F1D
:10281C006E65206973202573005465737400000085
:10282C000000000000000000590608084F060808C8
:10283C0045060808B7050808390608082D060808D3
:10284C0021060808190608080F06080805060808D6
:10285C00C1050808000000000000000095060808EB
:10286C009B060808F1060808A90608089706080838
:10287C000000000000000000990C0808890C0808F2
:10288C008B0C080866006C6E00666E00636F6465E6
:10289C000064657461696C000D0A00253031307577
:1028AC0020005D20002564002C200028293A2000FF
:1028BC00205B00636F6465203D2000256900646522
:1028CC007461696C73203D2000626175640053650E
:1028DC007269616C0055534253657269616C3100C9
:1028EC007479706500706172616D00636D6400696C
:1028FC006400686E64007374726D0066696C7400B9
:10290C006C766C0061646448616E646C6572007214
:10291C00656D6F766548616E646C657200656E7589
:10292C006D48616E646C657273004A534F4E5374FC
:10293C007265616D4C6F6748616E646C65720061A5
:10294C007070006E6F6E6500747261636500696E05
:10295C00666F007761726E006572726F72007061E3
:10296C006E696300616C6C000000000000000000E8
:10297C00390D0808430D08084D0D0808570D0808B7
:10298C00610D08086D0D0808790D0808850D0808FB
:10299C008D0D0808970D0808A10D0808000000000F
:1029AC0000000000D50E0808D70E0808252B303380
:1029BC00643A253032750025592D256D2D2564542A
:1029CC0025483A254D3A2553257A0061736374697D
:1029DC006D650000000000000000000009120808EE
:1029EC005912080867120808010E08081D12080879
:1029FC003F1208082B120808531208080B1208087B
:102A0C000F1208080000000000000000091308085D
:102A1C005913080867130808010E0808451308081D
:102A2C000B13080821130808531308083713080858
:102A3C000513080853756E4D6F6E547565576564B4
:102A4C005468754672695361744A616E4665624D8D
:102A5C0061724170724D61794A756E4A756C41753F
:102A6C00675365704F63744E6F76446563252E33E0
:102A7C007320252E337325336420252E32643A259A
:102A8C002E32643A252E32642025640A0000202060
:102A9C002020202020202028282828282020202002
:102AAC0020202020202020202020202020208810C2
:102ABC001010101010101010101010101010040422
:102ACC000404040404040404101010101010104129
:102ADC00414141414101010101010101010101019A
:102AEC00010101010101010101101010101010422F
:102AFC00424242424202020202020202020202026A
:102B0C000202020202020202021010101020000047
:102B1C0000000000000000000000000000000000A9
:102B2C000000000000000000000000000000000099
:102B3C000000000000000000000000000000000089
:102B4C000000000000000000000000000000000079
:102B5C000000000000000000000000000000000069
:102B6C000000000000000000000000000000000059
:102B7C000000000000000000000000000000000049
:102B8C000000000000000000000000000000000039
:102B9C000000000000000000000000000000000029
:102BAC000000000000000000000000000000000019
:102BBC000000000000000000000000000000000009
:102BCC0000000000000000000000000000000000F9
:102BDC0000000000000000000000000000000000E9
:102BEC0000000000000000000000000000000000D9
:102BFC00430000001F0000001C0000001F0000002C
:102C0C001E0000001F0000001E0000001F0000003E
:102C1C001F0000001E0000001F0000001E0000002E
:102C2C001F0000001F0000001D0000001F0000001E
:102C3C001E0000001F0000001E0000001F0000000E
:102C4C001F0000001E0000001F0000001E000000FE
:102C5C001F000000545A00474D54002531305B5E74
:102C6C00302D392C2B2D5D256E004D256875256E6C
:102C7C002E256875256E2E256875256E002F256806
:102C8C0075256E3A256875256E3A256875256E0092
:102C9C001102080865060808290D0808ED0D08083A
:102CAC00B90E0808C10F0808F5110808F115080835
:102CBC00211608089116080855170808D91708088E
:042CCC005D1808087F
:042CD0000000000000
:102CD4000000A0C00000803F100E0000D7290808A3
:102CE400992A0808000000009C2B0808BC2B08083F
:102CF400DC2B0808000000000000000000000000B9
:102D040000000000FC2B0808000000000000000088
:102D140000000000000000000000000000000000AF
:102D2400000000000000000000000000000000009F
:102D3400000000000000000000000000000000008F
:102D44000000000014000020632C0808632C08080D
:102D540001000000000000004A0000000000000024
:102D6400000000000000000000000000000000005F
:102D7400000000004A000000000000000000000005
:102D8400000000000000000000000000000000003F
:042D94003C070020D8
:102D9800FFFFFFFF00000102030405060708090AF8
:102DA8000B0C0D0E0F101112131415161718191AF3
:082DB8001B1C1D1E1F2028003A
:042DC00078563412FB
:040000050808001CCB
:00000001FF
